{
  "contractName": "Exchange",
  "abi": [
    {
      "constant": true,
      "inputs": [
        {
          "name": "interfaceId",
          "type": "bytes4"
        }
      ],
      "name": "supportsInterface",
      "outputs": [
        {
          "name": "",
          "type": "bool"
        }
      ],
      "payable": false,
      "stateMutability": "view",
      "type": "function"
    },
    {
      "constant": false,
      "inputs": [
        {
          "name": "spender",
          "type": "address"
        },
        {
          "name": "value",
          "type": "uint256"
        }
      ],
      "name": "approve",
      "outputs": [
        {
          "name": "",
          "type": "bool"
        }
      ],
      "payable": false,
      "stateMutability": "nonpayable",
      "type": "function"
    },
    {
      "constant": true,
      "inputs": [],
      "name": "totalSupply",
      "outputs": [
        {
          "name": "",
          "type": "uint256"
        }
      ],
      "payable": false,
      "stateMutability": "view",
      "type": "function"
    },
    {
      "constant": false,
      "inputs": [
        {
          "name": "sender",
          "type": "address"
        },
        {
          "name": "recipient",
          "type": "address"
        },
        {
          "name": "amount",
          "type": "uint256"
        }
      ],
      "name": "transferFrom",
      "outputs": [
        {
          "name": "",
          "type": "bool"
        }
      ],
      "payable": false,
      "stateMutability": "nonpayable",
      "type": "function"
    },
    {
      "constant": false,
      "inputs": [
        {
          "name": "recipient",
          "type": "address"
        },
        {
          "name": "amount",
          "type": "uint256"
        }
      ],
      "name": "safeTransfer",
      "outputs": [],
      "payable": false,
      "stateMutability": "nonpayable",
      "type": "function"
    },
    {
      "constant": false,
      "inputs": [
        {
          "name": "sender",
          "type": "address"
        },
        {
          "name": "recipient",
          "type": "address"
        },
        {
          "name": "amount",
          "type": "uint256"
        }
      ],
      "name": "safeTransferFrom",
      "outputs": [],
      "payable": false,
      "stateMutability": "nonpayable",
      "type": "function"
    },
    {
      "constant": true,
      "inputs": [
        {
          "name": "account",
          "type": "address"
        }
      ],
      "name": "balanceOf",
      "outputs": [
        {
          "name": "",
          "type": "uint256"
        }
      ],
      "payable": false,
      "stateMutability": "view",
      "type": "function"
    },
    {
      "constant": true,
      "inputs": [],
      "name": "factoryAddress",
      "outputs": [
        {
          "name": "",
          "type": "address"
        }
      ],
      "payable": false,
      "stateMutability": "view",
      "type": "function"
    },
    {
      "constant": true,
      "inputs": [],
      "name": "tokenAddress",
      "outputs": [
        {
          "name": "",
          "type": "address"
        }
      ],
      "payable": false,
      "stateMutability": "view",
      "type": "function"
    },
    {
      "constant": false,
      "inputs": [
        {
          "name": "recipient",
          "type": "address"
        },
        {
          "name": "amount",
          "type": "uint256"
        }
      ],
      "name": "transfer",
      "outputs": [
        {
          "name": "",
          "type": "bool"
        }
      ],
      "payable": false,
      "stateMutability": "nonpayable",
      "type": "function"
    },
    {
      "constant": false,
      "inputs": [
        {
          "name": "sender",
          "type": "address"
        },
        {
          "name": "recipient",
          "type": "address"
        },
        {
          "name": "amount",
          "type": "uint256"
        },
        {
          "name": "data",
          "type": "bytes"
        }
      ],
      "name": "safeTransferFrom",
      "outputs": [],
      "payable": false,
      "stateMutability": "nonpayable",
      "type": "function"
    },
    {
      "constant": true,
      "inputs": [
        {
          "name": "owner",
          "type": "address"
        },
        {
          "name": "spender",
          "type": "address"
        }
      ],
      "name": "allowance",
      "outputs": [
        {
          "name": "",
          "type": "uint256"
        }
      ],
      "payable": false,
      "stateMutability": "view",
      "type": "function"
    },
    {
      "constant": false,
      "inputs": [
        {
          "name": "recipient",
          "type": "address"
        },
        {
          "name": "amount",
          "type": "uint256"
        },
        {
          "name": "data",
          "type": "bytes"
        }
      ],
      "name": "safeTransfer",
      "outputs": [],
      "payable": false,
      "stateMutability": "nonpayable",
      "type": "function"
    },
    {
      "inputs": [
        {
          "name": "_token",
          "type": "address"
        }
      ],
      "payable": false,
      "stateMutability": "nonpayable",
      "type": "constructor"
    },
    {
      "anonymous": false,
      "inputs": [
        {
          "indexed": true,
          "name": "from",
          "type": "address"
        },
        {
          "indexed": true,
          "name": "to",
          "type": "address"
        },
        {
          "indexed": false,
          "name": "value",
          "type": "uint256"
        }
      ],
      "name": "Transfer",
      "type": "event"
    },
    {
      "anonymous": false,
      "inputs": [
        {
          "indexed": true,
          "name": "owner",
          "type": "address"
        },
        {
          "indexed": true,
          "name": "spender",
          "type": "address"
        },
        {
          "indexed": false,
          "name": "value",
          "type": "uint256"
        }
      ],
      "name": "Approval",
      "type": "event"
    },
    {
      "constant": true,
      "inputs": [],
      "name": "getAddrCount",
      "outputs": [
        {
          "name": "",
          "type": "uint256"
        }
      ],
      "payable": false,
      "stateMutability": "view",
      "type": "function"
    },
    {
      "constant": true,
      "inputs": [
        {
          "name": "index",
          "type": "uint256"
        }
      ],
      "name": "getAddr",
      "outputs": [
        {
          "name": "",
          "type": "address"
        }
      ],
      "payable": false,
      "stateMutability": "view",
      "type": "function"
    },
    {
      "constant": true,
      "inputs": [
        {
          "name": "index",
          "type": "uint256"
        }
      ],
      "name": "getIndexBalance",
      "outputs": [
        {
          "name": "",
          "type": "uint256"
        }
      ],
      "payable": false,
      "stateMutability": "view",
      "type": "function"
    },
    {
      "constant": true,
      "inputs": [
        {
          "name": "_ethAmount",
          "type": "uint256"
        }
      ],
      "name": "getMinimumTokenAmountToAddLiquidity",
      "outputs": [
        {
          "name": "",
          "type": "uint256"
        }
      ],
      "payable": false,
      "stateMutability": "view",
      "type": "function"
    },
    {
      "constant": false,
      "inputs": [
        {
          "name": "_tokenAmount",
          "type": "uint256"
        }
      ],
      "name": "addLiquidity",
      "outputs": [
        {
          "name": "",
          "type": "uint256"
        }
      ],
      "payable": true,
      "stateMutability": "payable",
      "type": "function"
    },
    {
      "constant": false,
      "inputs": [
        {
          "name": "_amount",
          "type": "uint256"
        }
      ],
      "name": "removeLiquidity",
      "outputs": [
        {
          "name": "",
          "type": "uint256"
        },
        {
          "name": "",
          "type": "uint256"
        }
      ],
      "payable": false,
      "stateMutability": "nonpayable",
      "type": "function"
    },
    {
      "constant": true,
      "inputs": [],
      "name": "getReserve",
      "outputs": [
        {
          "name": "",
          "type": "uint256"
        }
      ],
      "payable": false,
      "stateMutability": "view",
      "type": "function"
    },
    {
      "constant": true,
      "inputs": [
        {
          "name": "_ethSold",
          "type": "uint256"
        }
      ],
      "name": "getTokenAmount",
      "outputs": [
        {
          "name": "",
          "type": "uint256"
        }
      ],
      "payable": false,
      "stateMutability": "view",
      "type": "function"
    },
    {
      "constant": true,
      "inputs": [
        {
          "name": "_tokenSold",
          "type": "uint256"
        }
      ],
      "name": "getEthAmount",
      "outputs": [
        {
          "name": "",
          "type": "uint256"
        }
      ],
      "payable": false,
      "stateMutability": "view",
      "type": "function"
    },
    {
      "constant": false,
      "inputs": [
        {
          "name": "_minTokens",
          "type": "uint256"
        },
        {
          "name": "_recipient",
          "type": "address"
        }
      ],
      "name": "ethToTokenTransfer",
      "outputs": [],
      "payable": true,
      "stateMutability": "payable",
      "type": "function"
    },
    {
      "constant": false,
      "inputs": [
        {
          "name": "_minTokens",
          "type": "uint256"
        }
      ],
      "name": "ethToTokenSwap",
      "outputs": [],
      "payable": true,
      "stateMutability": "payable",
      "type": "function"
    },
    {
      "constant": false,
      "inputs": [
        {
          "name": "_tokensSold",
          "type": "uint256"
        },
        {
          "name": "_minEth",
          "type": "uint256"
        }
      ],
      "name": "tokenToEthSwap",
      "outputs": [],
      "payable": false,
      "stateMutability": "nonpayable",
      "type": "function"
    },
    {
      "constant": false,
      "inputs": [
        {
          "name": "_tokensSold",
          "type": "uint256"
        },
        {
          "name": "_minTokensBought",
          "type": "uint256"
        },
        {
          "name": "_tokenAddress",
          "type": "address"
        }
      ],
      "name": "tokenToTokenSwap",
      "outputs": [],
      "payable": false,
      "stateMutability": "nonpayable",
      "type": "function"
    },
    {
      "constant": true,
      "inputs": [],
      "name": "getLiquidityPerToken",
      "outputs": [
        {
          "name": "",
          "type": "uint256"
        }
      ],
      "payable": false,
      "stateMutability": "view",
      "type": "function"
    }
  ],
  "bytecode": "0x608060405260006008553480156200001657600080fd5b506040516020806200393f833981018060405260208110156200003857600080fd5b8101908080519060200190929190505050620000866301ffc9a77c010000000000000000000000000000000000000000000000000000000002620001f0640100000000026401000000009004565b620000c363657873717c010000000000000000000000000000000000000000000000000000000002620001f0640100000000026401000000009004565b600073ffffffffffffffffffffffffffffffffffffffff168173ffffffffffffffffffffffffffffffffffffffff16141562000167576040517f08c379a00000000000000000000000000000000000000000000000000000000081526004018080602001828103825260158152602001807f696e76616c696420746f6b656e2061646472657373000000000000000000000081525060200191505060405180910390fd5b80600460006101000a81548173ffffffffffffffffffffffffffffffffffffffff021916908373ffffffffffffffffffffffffffffffffffffffff16021790555033600560006101000a81548173ffffffffffffffffffffffffffffffffffffffff021916908373ffffffffffffffffffffffffffffffffffffffff1602179055505062000315565b63ffffffff7c010000000000000000000000000000000000000000000000000000000002817bffffffffffffffffffffffffffffffffffffffffffffffffffffffff19161415620002a9576040517f08c379a000000000000000000000000000000000000000000000000000000000815260040180806020018281038252601b8152602001807f4b495031333a20696e76616c696420696e74657266616365206964000000000081525060200191505060405180910390fd5b6001600080837bffffffffffffffffffffffffffffffffffffffffffffffffffffffff19167bffffffffffffffffffffffffffffffffffffffffffffffffffffffff1916815260200190815260200160002060006101000a81548160ff02191690831515021790555050565b61361a80620003256000396000f3fe6080604052600436106101b9576000357c0100000000000000000000000000000000000000000000000000000000900480639c8f9f2311610109578063dd62ed3e116100a7578063eb79554911610081578063eb79554914610a8c578063f7a7e32414610b7e578063f979dcd714610be3578063fdf25b1314610c11576101b9565b8063dd62ed3e14610973578063ddb01eba146109f8578063e0486c8a14610a47576101b9565b8063a9059cbb116100e3578063a9059cbb14610724578063b88d4fde14610797578063c2507ac1146108a9578063d81f84b7146108f8576101b9565b80639c8f9f231461064c5780639d76ea58146106a2578063a432904d146106f9576101b9565b8063423f6cef1161017657806359bf5d391161015057806359bf5d391461051657806370a08231146105415780638fc7a25d146105a6578063966dae0e146105f5576101b9565b8063423f6cef146103fe57806342842e0e1461045957806351c6590a146104d4576101b9565b806301ffc9a7146101be578063095ea7b3146102305780630cf84d4d146102a357806318160ddd146102f257806323b872dd1461031d578063389d9a40146103b0575b600080fd5b3480156101ca57600080fd5b50610216600480360360208110156101e157600080fd5b8101908080357bffffffffffffffffffffffffffffffffffffffffffffffffffffffff19169060200190929190505050610c3c565b604051808215151515815260200191505060405180910390f35b34801561023c57600080fd5b506102896004803603604081101561025357600080fd5b81019080803573ffffffffffffffffffffffffffffffffffffffff16906020019092919080359060200190929190505050610ca3565b604051808215151515815260200191505060405180910390f35b3480156102af57600080fd5b506102dc600480360360208110156102c657600080fd5b8101908080359060200190929190505050610cba565b6040518082815260200191505060405180910390f35b3480156102fe57600080fd5b50610307610d1a565b6040518082815260200191505060405180910390f35b34801561032957600080fd5b506103966004803603606081101561034057600080fd5b81019080803573ffffffffffffffffffffffffffffffffffffffff169060200190929190803573ffffffffffffffffffffffffffffffffffffffff16906020019092919080359060200190929190505050610d24565b604051808215151515815260200191505060405180910390f35b6103fc600480360360408110156103c657600080fd5b8101908080359060200190929190803573ffffffffffffffffffffffffffffffffffffffff169060200190929190505050610dd5565b005b34801561040a57600080fd5b506104576004803603604081101561042157600080fd5b81019080803573ffffffffffffffffffffffffffffffffffffffff16906020019092919080359060200190929190505050610de3565b005b34801561046557600080fd5b506104d26004803603606081101561047c57600080fd5b81019080803573ffffffffffffffffffffffffffffffffffffffff169060200190929190803573ffffffffffffffffffffffffffffffffffffffff16906020019092919080359060200190929190505050610e01565b005b610500600480360360208110156104ea57600080fd5b8101908080359060200190929190505050610e21565b6040518082815260200191505060405180910390f35b34801561052257600080fd5b5061052b611746565b6040518082815260200191505060405180910390f35b34801561054d57600080fd5b506105906004803603602081101561056457600080fd5b81019080803573ffffffffffffffffffffffffffffffffffffffff169060200190929190505050611843565b6040518082815260200191505060405180910390f35b3480156105b257600080fd5b506105df600480360360208110156105c957600080fd5b810190808035906020019092919050505061188c565b6040518082815260200191505060405180910390f35b34801561060157600080fd5b5061060a611939565b604051808273ffffffffffffffffffffffffffffffffffffffff1673ffffffffffffffffffffffffffffffffffffffff16815260200191505060405180910390f35b34801561065857600080fd5b506106856004803603602081101561066f57600080fd5b810190808035906020019092919050505061195f565b604051808381526020018281526020019250505060405180910390f35b3480156106ae57600080fd5b506106b7611b83565b604051808273ffffffffffffffffffffffffffffffffffffffff1673ffffffffffffffffffffffffffffffffffffffff16815260200191505060405180910390f35b34801561070557600080fd5b5061070e611ba9565b6040518082815260200191505060405180910390f35b34801561073057600080fd5b5061077d6004803603604081101561074757600080fd5b81019080803573ffffffffffffffffffffffffffffffffffffffff16906020019092919080359060200190929190505050611bb3565b604051808215151515815260200191505060405180910390f35b3480156107a357600080fd5b506108a7600480360360808110156107ba57600080fd5b81019080803573ffffffffffffffffffffffffffffffffffffffff169060200190929190803573ffffffffffffffffffffffffffffffffffffffff169060200190929190803590602001909291908035906020019064010000000081111561082157600080fd5b82018360208201111561083357600080fd5b8035906020019184600183028401116401000000008311171561085557600080fd5b91908080601f016020809104026020016040519081016040528093929190818152602001838380828437600081840152601f19601f820116905080830192505050505050509192919290505050611bca565b005b3480156108b557600080fd5b506108e2600480360360208110156108cc57600080fd5b8101908080359060200190929190505050611c3d565b6040518082815260200191505060405180910390f35b34801561090457600080fd5b506109316004803603602081101561091b57600080fd5b8101908080359060200190929190505050611cea565b604051808273ffffffffffffffffffffffffffffffffffffffff1673ffffffffffffffffffffffffffffffffffffffff16815260200191505060405180910390f35b34801561097f57600080fd5b506109e26004803603604081101561099657600080fd5b81019080803573ffffffffffffffffffffffffffffffffffffffff169060200190929190803573ffffffffffffffffffffffffffffffffffffffff169060200190929190505050611d81565b6040518082815260200191505060405180910390f35b348015610a0457600080fd5b50610a3160048036036020811015610a1b57600080fd5b8101908080359060200190929190505050611e08565b6040518082815260200191505060405180910390f35b348015610a5357600080fd5b50610a8a60048036036040811015610a6a57600080fd5b810190808035906020019092919080359060200190929190505050611ea7565b005b348015610a9857600080fd5b50610b7c60048036036060811015610aaf57600080fd5b81019080803573ffffffffffffffffffffffffffffffffffffffff1690602001909291908035906020019092919080359060200190640100000000811115610af657600080fd5b820183602082011115610b0857600080fd5b80359060200191846001830284011164010000000083111715610b2a57600080fd5b91908080601f016020809104026020016040519081016040528093929190818152602001838380828437600081840152601f19601f8201169050808301925050505050505091929192905050506120d1565b005b348015610b8a57600080fd5b50610be160048036036060811015610ba157600080fd5b810190808035906020019092919080359060200190929190803573ffffffffffffffffffffffffffffffffffffffff169060200190929190505050612142565b005b610c0f60048036036020811015610bf957600080fd5b8101908080359060200190929190505050612542565b005b348015610c1d57600080fd5b50610c2661254f565b6040518082815260200191505060405180910390f35b6000806000837bffffffffffffffffffffffffffffffffffffffffffffffffffffffff19167bffffffffffffffffffffffffffffffffffffffffffffffffffffffff1916815260200190815260200160002060009054906101000a900460ff169050919050565b6000610cb03384846126a2565b6001905092915050565b600080610cc5611746565b1415610cd45760009050610d15565b6000823073ffffffffffffffffffffffffffffffffffffffff16310390506000610cfc611746565b905060008282860281610d0b57fe5b0490508093505050505b919050565b6000600354905090565b6000610d31848484612899565b610dca8433610dc585600260008a73ffffffffffffffffffffffffffffffffffffffff1673ffffffffffffffffffffffffffffffffffffffff16815260200190815260200160002060003373ffffffffffffffffffffffffffffffffffffffff1673ffffffffffffffffffffffffffffffffffffffff16815260200190815260200160002054612b3990919063ffffffff16565b6126a2565b600190509392505050565b610ddf8282612b83565b5050565b610dfd8282604051806020016040528060008152506120d1565b5050565b610e1c83838360405180602001604052806000815250611bca565b505050565b6000600660003373ffffffffffffffffffffffffffffffffffffffff1673ffffffffffffffffffffffffffffffffffffffff16815260200190815260200160002060009054906101000a900460ff161561127e576000610e7f611746565b1415611065576000600460009054906101000a900473ffffffffffffffffffffffffffffffffffffffff16905060008311610f22576040517f08c379a000000000000000000000000000000000000000000000000000000000815260040180806020018281038252601e8152602001807f45786368616e67653a20696e76616c696420746f6b656e20616d6f756e74000081525060200191505060405180910390fd5b8073ffffffffffffffffffffffffffffffffffffffff166323b872dd3330866040518463ffffffff167c0100000000000000000000000000000000000000000000000000000000028152600401808473ffffffffffffffffffffffffffffffffffffffff1673ffffffffffffffffffffffffffffffffffffffff1681526020018373ffffffffffffffffffffffffffffffffffffffff1673ffffffffffffffffffffffffffffffffffffffff1681526020018281526020019350505050602060405180830381600087803b158015610ff957600080fd5b505af115801561100d573d6000803e3d6000fd5b505050506040513d602081101561102357600080fd5b81019080805190602001909291905050505060003073ffffffffffffffffffffffffffffffffffffffff1631905061105b3382612d34565b8092505050611279565b6000343073ffffffffffffffffffffffffffffffffffffffff1631039050600061108d611746565b90506000828234028161109c57fe5b04905080851015611115576040517f08c379a00000000000000000000000000000000000000000000000000000000081526004018080602001828103825260198152602001807f696e73756666696369656e7420746f6b656e20616d6f756e740000000000000081525060200191505060405180910390fd5b6000600460009054906101000a900473ffffffffffffffffffffffffffffffffffffffff1690508073ffffffffffffffffffffffffffffffffffffffff166323b872dd3330856040518463ffffffff167c0100000000000000000000000000000000000000000000000000000000028152600401808473ffffffffffffffffffffffffffffffffffffffff1673ffffffffffffffffffffffffffffffffffffffff1681526020018373ffffffffffffffffffffffffffffffffffffffff1673ffffffffffffffffffffffffffffffffffffffff1681526020018281526020019350505050602060405180830381600087803b15801561121357600080fd5b505af1158015611227573d6000803e3d6000fd5b505050506040513d602081101561123d57600080fd5b81019080805190602001909291905050505060008461125a610d1a565b34028161126357fe5b0490506112703382612d34565b80955050505050505b611741565b3360076000600854815260200190815260200160002060006101000a81548173ffffffffffffffffffffffffffffffffffffffff021916908373ffffffffffffffffffffffffffffffffffffffff1602179055506008600081548092919060010191905055506001600660003373ffffffffffffffffffffffffffffffffffffffff1673ffffffffffffffffffffffffffffffffffffffff16815260200190815260200160002060006101000a81548160ff0219169083151502179055506000611346611746565b141561152c576000600460009054906101000a900473ffffffffffffffffffffffffffffffffffffffff169050600083116113e9576040517f08c379a000000000000000000000000000000000000000000000000000000000815260040180806020018281038252601e8152602001807f45786368616e67653a20696e76616c696420746f6b656e20616d6f756e74000081525060200191505060405180910390fd5b8073ffffffffffffffffffffffffffffffffffffffff166323b872dd3330866040518463ffffffff167c0100000000000000000000000000000000000000000000000000000000028152600401808473ffffffffffffffffffffffffffffffffffffffff1673ffffffffffffffffffffffffffffffffffffffff1681526020018373ffffffffffffffffffffffffffffffffffffffff1673ffffffffffffffffffffffffffffffffffffffff1681526020018281526020019350505050602060405180830381600087803b1580156114c057600080fd5b505af11580156114d4573d6000803e3d6000fd5b505050506040513d60208110156114ea57600080fd5b81019080805190602001909291905050505060003073ffffffffffffffffffffffffffffffffffffffff163190506115223382612d34565b8092505050611740565b6000343073ffffffffffffffffffffffffffffffffffffffff16310390506000611554611746565b90506000828234028161156357fe5b049050808510156115dc576040517f08c379a00000000000000000000000000000000000000000000000000000000081526004018080602001828103825260198152602001807f696e73756666696369656e7420746f6b656e20616d6f756e740000000000000081525060200191505060405180910390fd5b6000600460009054906101000a900473ffffffffffffffffffffffffffffffffffffffff1690508073ffffffffffffffffffffffffffffffffffffffff166323b872dd3330856040518463ffffffff167c0100000000000000000000000000000000000000000000000000000000028152600401808473ffffffffffffffffffffffffffffffffffffffff1673ffffffffffffffffffffffffffffffffffffffff1681526020018373ffffffffffffffffffffffffffffffffffffffff1673ffffffffffffffffffffffffffffffffffffffff1681526020018281526020019350505050602060405180830381600087803b1580156116da57600080fd5b505af11580156116ee573d6000803e3d6000fd5b505050506040513d602081101561170457600080fd5b810190808051906020019092919050505050600084611721610d1a565b34028161172a57fe5b0490506117373382612d34565b80955050505050505b5b919050565b6000600460009054906101000a900473ffffffffffffffffffffffffffffffffffffffff1673ffffffffffffffffffffffffffffffffffffffff166370a08231306040518263ffffffff167c0100000000000000000000000000000000000000000000000000000000028152600401808273ffffffffffffffffffffffffffffffffffffffff1673ffffffffffffffffffffffffffffffffffffffff16815260200191505060206040518083038186803b15801561180357600080fd5b505afa158015611817573d6000803e3d6000fd5b505050506040513d602081101561182d57600080fd5b8101908080519060200190929190505050905090565b6000600160008373ffffffffffffffffffffffffffffffffffffffff1673ffffffffffffffffffffffffffffffffffffffff168152602001908152602001600020549050919050565b6000808211611903576040517f08c379a00000000000000000000000000000000000000000000000000000000081526004018080602001828103825260168152602001807f746f6b656e536f6c6420697320746f6f20736d616c6c0000000000000000000081525060200191505060405180910390fd5b600061190d611746565b905061193183823073ffffffffffffffffffffffffffffffffffffffff1631612ef1565b915050919050565b600560009054906101000a900473ffffffffffffffffffffffffffffffffffffffff1681565b600080600083116119d8576040517f08c379a000000000000000000000000000000000000000000000000000000000815260040180806020018281038252600e8152602001807f696e76616c696420616d6f756e7400000000000000000000000000000000000081525060200191505060405180910390fd5b60006119e2610d1a565b843073ffffffffffffffffffffffffffffffffffffffff16310281611a0357fe5b0490506000611a10610d1a565b85611a19611746565b0281611a2157fe5b049050611a2e3386612fa5565b3373ffffffffffffffffffffffffffffffffffffffff166108fc839081150290604051600060405180830381858888f19350505050158015611a74573d6000803e3d6000fd5b50600460009054906101000a900473ffffffffffffffffffffffffffffffffffffffff1673ffffffffffffffffffffffffffffffffffffffff1663a9059cbb33836040518363ffffffff167c0100000000000000000000000000000000000000000000000000000000028152600401808373ffffffffffffffffffffffffffffffffffffffff1673ffffffffffffffffffffffffffffffffffffffff16815260200182815260200192505050602060405180830381600087803b158015611b3a57600080fd5b505af1158015611b4e573d6000803e3d6000fd5b505050506040513d6020811015611b6457600080fd5b8101908080519060200190929190505050508181935093505050915091565b600460009054906101000a900473ffffffffffffffffffffffffffffffffffffffff1681565b6000600854905090565b6000611bc0338484612899565b6001905092915050565b611bd5848484610d24565b50611be284848484613162565b611c37576040517f08c379a000000000000000000000000000000000000000000000000000000000815260040180806020018281038252602e815260200180613500602e913960400191505060405180910390fd5b50505050565b6000808211611cb4576040517f08c379a00000000000000000000000000000000000000000000000000000000081526004018080602001828103825260148152602001807f657468536f6c6420697320746f6f20736d616c6c00000000000000000000000081525060200191505060405180910390fd5b6000611cbe611746565b9050611ce2833073ffffffffffffffffffffffffffffffffffffffff163183612ef1565b915050919050565b60006008548210611d46576040517f08c379a00000000000000000000000000000000000000000000000000000000081526004018080602001828103825260278152602001806135506027913960400191505060405180910390fd5b6007600083815260200190815260200160002060009054906101000a900473ffffffffffffffffffffffffffffffffffffffff169050919050565b6000600260008473ffffffffffffffffffffffffffffffffffffffff1673ffffffffffffffffffffffffffffffffffffffff16815260200190815260200160002060008373ffffffffffffffffffffffffffffffffffffffff1673ffffffffffffffffffffffffffffffffffffffff16815260200190815260200160002054905092915050565b60006008548210611e64576040517f08c379a000000000000000000000000000000000000000000000000000000000815260040180806020018281038252603181526020018061359b6031913960400191505060405180910390fd5b611ea06007600084815260200190815260200160002060009054906101000a900473ffffffffffffffffffffffffffffffffffffffff16611843565b9050919050565b6000611eb1611746565b90506000611ed784833073ffffffffffffffffffffffffffffffffffffffff1631612ef1565b905082811015611f4f576040517f08c379a000000000000000000000000000000000000000000000000000000000815260040180806020018281038252601a8152602001807f696e73756666696369656e74206f757470757420616d6f756e7400000000000081525060200191505060405180910390fd5b600460009054906101000a900473ffffffffffffffffffffffffffffffffffffffff1673ffffffffffffffffffffffffffffffffffffffff166323b872dd3330876040518463ffffffff167c0100000000000000000000000000000000000000000000000000000000028152600401808473ffffffffffffffffffffffffffffffffffffffff1673ffffffffffffffffffffffffffffffffffffffff1681526020018373ffffffffffffffffffffffffffffffffffffffff1673ffffffffffffffffffffffffffffffffffffffff1681526020018281526020019350505050602060405180830381600087803b15801561204857600080fd5b505af115801561205c573d6000803e3d6000fd5b505050506040513d602081101561207257600080fd5b8101908080519060200190929190505050503373ffffffffffffffffffffffffffffffffffffffff166108fc829081150290604051600060405180830381858888f193505050501580156120ca573d6000803e3d6000fd5b5050505050565b6120db8383611bb3565b506120e833848484613162565b61213d576040517f08c379a000000000000000000000000000000000000000000000000000000000815260040180806020018281038252602e815260200180613500602e913960400191505060405180910390fd5b505050565b6000600560009054906101000a900473ffffffffffffffffffffffffffffffffffffffff1673ffffffffffffffffffffffffffffffffffffffff166306f2bf62836040518263ffffffff167c0100000000000000000000000000000000000000000000000000000000028152600401808273ffffffffffffffffffffffffffffffffffffffff1673ffffffffffffffffffffffffffffffffffffffff16815260200191505060206040518083038186803b1580156121ff57600080fd5b505afa158015612213573d6000803e3d6000fd5b505050506040513d602081101561222957600080fd5b810190808051906020019092919050505090503073ffffffffffffffffffffffffffffffffffffffff168173ffffffffffffffffffffffffffffffffffffffff16141580156122a55750600073ffffffffffffffffffffffffffffffffffffffff168173ffffffffffffffffffffffffffffffffffffffff1614155b612317576040517f08c379a00000000000000000000000000000000000000000000000000000000081526004018080602001828103825260188152602001807f696e76616c69642065786368616e67652061646472657373000000000000000081525060200191505060405180910390fd5b6000612321611746565b9050600061234786833073ffffffffffffffffffffffffffffffffffffffff1631612ef1565b9050600460009054906101000a900473ffffffffffffffffffffffffffffffffffffffff1673ffffffffffffffffffffffffffffffffffffffff166323b872dd3330896040518463ffffffff167c0100000000000000000000000000000000000000000000000000000000028152600401808473ffffffffffffffffffffffffffffffffffffffff1673ffffffffffffffffffffffffffffffffffffffff1681526020018373ffffffffffffffffffffffffffffffffffffffff1673ffffffffffffffffffffffffffffffffffffffff1681526020018281526020019350505050602060405180830381600087803b15801561244257600080fd5b505af1158015612456573d6000803e3d6000fd5b505050506040513d602081101561246c57600080fd5b8101908080519060200190929190505050508273ffffffffffffffffffffffffffffffffffffffff1663389d9a408287336040518463ffffffff167c0100000000000000000000000000000000000000000000000000000000028152600401808381526020018273ffffffffffffffffffffffffffffffffffffffff1673ffffffffffffffffffffffffffffffffffffffff168152602001925050506000604051808303818588803b15801561252157600080fd5b505af1158015612535573d6000803e3d6000fd5b5050505050505050505050565b61254c8133612b83565b50565b600080620f4240600460009054906101000a900473ffffffffffffffffffffffffffffffffffffffff1673ffffffffffffffffffffffffffffffffffffffff166370a08231306040518263ffffffff167c0100000000000000000000000000000000000000000000000000000000028152600401808273ffffffffffffffffffffffffffffffffffffffff1673ffffffffffffffffffffffffffffffffffffffff16815260200191505060206040518083038186803b15801561261157600080fd5b505afa158015612625573d6000803e3d6000fd5b505050506040513d602081101561263b57600080fd5b81019080805190602001909291905050503073ffffffffffffffffffffffffffffffffffffffff1631020290506000612672610d1a565b61267a610d1a565b029050600082146126985780828161268e57fe5b049250505061269f565b6000925050505b90565b600073ffffffffffffffffffffffffffffffffffffffff168373ffffffffffffffffffffffffffffffffffffffff161415612728576040517f08c379a00000000000000000000000000000000000000000000000000000000081526004018080602001828103825260238152602001806135cc6023913960400191505060405180910390fd5b600073ffffffffffffffffffffffffffffffffffffffff168273ffffffffffffffffffffffffffffffffffffffff1614156127ae576040517f08c379a00000000000000000000000000000000000000000000000000000000081526004018080602001828103825260218152602001806134df6021913960400191505060405180910390fd5b80600260008573ffffffffffffffffffffffffffffffffffffffff1673ffffffffffffffffffffffffffffffffffffffff16815260200190815260200160002060008473ffffffffffffffffffffffffffffffffffffffff1673ffffffffffffffffffffffffffffffffffffffff168152602001908152602001600020819055508173ffffffffffffffffffffffffffffffffffffffff168373ffffffffffffffffffffffffffffffffffffffff167f8c5be1e5ebec7d5bd14f71427d1e84f3dd0314c0f7b2291e5b200ac8c7c3b925836040518082815260200191505060405180910390a3505050565b600073ffffffffffffffffffffffffffffffffffffffff168373ffffffffffffffffffffffffffffffffffffffff16141561291f576040517f08c379a00000000000000000000000000000000000000000000000000000000081526004018080602001828103825260248152602001806135776024913960400191505060405180910390fd5b600073ffffffffffffffffffffffffffffffffffffffff168273ffffffffffffffffffffffffffffffffffffffff1614156129a5576040517f08c379a000000000000000000000000000000000000000000000000000000000815260040180806020018281038252602281526020018061352e6022913960400191505060405180910390fd5b6129f781600160008673ffffffffffffffffffffffffffffffffffffffff1673ffffffffffffffffffffffffffffffffffffffff16815260200190815260200160002054612b3990919063ffffffff16565b600160008573ffffffffffffffffffffffffffffffffffffffff1673ffffffffffffffffffffffffffffffffffffffff16815260200190815260200160002081905550612a8c81600160008573ffffffffffffffffffffffffffffffffffffffff1673ffffffffffffffffffffffffffffffffffffffff1681526020019081526020016000205461338390919063ffffffff16565b600160008473ffffffffffffffffffffffffffffffffffffffff1673ffffffffffffffffffffffffffffffffffffffff168152602001908152602001600020819055508173ffffffffffffffffffffffffffffffffffffffff168373ffffffffffffffffffffffffffffffffffffffff167fddf252ad1be2c89b69c2b068fc378daa952ba7f163c4a11628f55a4df523b3ef836040518082815260200191505060405180910390a3505050565b6000612b7b83836040518060400160405280601e81526020017f536166654d6174683a207375627472616374696f6e206f766572666c6f77000081525061340b565b905092915050565b6000612b8d611746565b90506000612bb534343073ffffffffffffffffffffffffffffffffffffffff16310384612ef1565b905083811015612c2d576040517f08c379a000000000000000000000000000000000000000000000000000000000815260040180806020018281038252601a8152602001807f696e73756666696369656e74206f757470757420616d6f756e7400000000000081525060200191505060405180910390fd5b600460009054906101000a900473ffffffffffffffffffffffffffffffffffffffff1673ffffffffffffffffffffffffffffffffffffffff1663a9059cbb84836040518363ffffffff167c0100000000000000000000000000000000000000000000000000000000028152600401808373ffffffffffffffffffffffffffffffffffffffff1673ffffffffffffffffffffffffffffffffffffffff16815260200182815260200192505050602060405180830381600087803b158015612cf257600080fd5b505af1158015612d06573d6000803e3d6000fd5b505050506040513d6020811015612d1c57600080fd5b81019080805190602001909291905050505050505050565b600073ffffffffffffffffffffffffffffffffffffffff168273ffffffffffffffffffffffffffffffffffffffff161415612dd7576040517f08c379a000000000000000000000000000000000000000000000000000000000815260040180806020018281038252601e8152602001807f4b4950373a206d696e7420746f20746865207a65726f2061646472657373000081525060200191505060405180910390fd5b612dec8160035461338390919063ffffffff16565b600381905550612e4481600160008573ffffffffffffffffffffffffffffffffffffffff1673ffffffffffffffffffffffffffffffffffffffff1681526020019081526020016000205461338390919063ffffffff16565b600160008473ffffffffffffffffffffffffffffffffffffffff1673ffffffffffffffffffffffffffffffffffffffff168152602001908152602001600020819055508173ffffffffffffffffffffffffffffffffffffffff16600073ffffffffffffffffffffffffffffffffffffffff167fddf252ad1be2c89b69c2b068fc378daa952ba7f163c4a11628f55a4df523b3ef836040518082815260200191505060405180910390a35050565b60008083118015612f025750600082115b612f74576040517f08c379a00000000000000000000000000000000000000000000000000000000081526004018080602001828103825260108152602001807f696e76616c69642072657365727665730000000000000000000000000000000081525060200191505060405180910390fd5b60006103e585029050600083820290506000826103e88702019050808281612f9857fe5b0493505050509392505050565b600073ffffffffffffffffffffffffffffffffffffffff168273ffffffffffffffffffffffffffffffffffffffff161415613048576040517f08c379a00000000000000000000000000000000000000000000000000000000081526004018080602001828103825260208152602001807f4b4950373a206275726e2066726f6d20746865207a65726f206164647265737381525060200191505060405180910390fd5b61305d81600354612b3990919063ffffffff16565b6003819055506130b581600160008573ffffffffffffffffffffffffffffffffffffffff1673ffffffffffffffffffffffffffffffffffffffff16815260200190815260200160002054612b3990919063ffffffff16565b600160008473ffffffffffffffffffffffffffffffffffffffff1673ffffffffffffffffffffffffffffffffffffffff16815260200190815260200160002081905550600073ffffffffffffffffffffffffffffffffffffffff168273ffffffffffffffffffffffffffffffffffffffff167fddf252ad1be2c89b69c2b068fc378daa952ba7f163c4a11628f55a4df523b3ef836040518082815260200191505060405180910390a35050565b60006131838473ffffffffffffffffffffffffffffffffffffffff166134cb565b613190576001905061337b565b60008473ffffffffffffffffffffffffffffffffffffffff16639d188c22338887876040518563ffffffff167c0100000000000000000000000000000000000000000000000000000000028152600401808573ffffffffffffffffffffffffffffffffffffffff1673ffffffffffffffffffffffffffffffffffffffff1681526020018473ffffffffffffffffffffffffffffffffffffffff1673ffffffffffffffffffffffffffffffffffffffff16815260200183815260200180602001828103825283818151815260200191508051906020019080838360005b8381101561328757808201518184015260208101905061326c565b50505050905090810190601f1680156132b45780820380516001836020036101000a031916815260200191505b5095505050505050602060405180830381600087803b1580156132d657600080fd5b505af11580156132ea573d6000803e3d6000fd5b505050506040513d602081101561330057600080fd5b81019080805190602001909291905050509050639d188c227c0100000000000000000000000000000000000000000000000000000000027bffffffffffffffffffffffffffffffffffffffffffffffffffffffff1916817bffffffffffffffffffffffffffffffffffffffffffffffffffffffff1916149150505b949350505050565b600080828401905083811015613401576040517f08c379a000000000000000000000000000000000000000000000000000000000815260040180806020018281038252601b8152602001807f536166654d6174683a206164646974696f6e206f766572666c6f77000000000081525060200191505060405180910390fd5b8091505092915050565b60008383111582906134b8576040517f08c379a00000000000000000000000000000000000000000000000000000000081526004018080602001828103825283818151815260200191508051906020019080838360005b8381101561347d578082015181840152602081019050613462565b50505050905090810190601f1680156134aa5780820380516001836020036101000a031916815260200191505b509250505060405180910390fd5b5060008385039050809150509392505050565b600080823b90506000811191505091905056fe4b4950373a20617070726f766520746f20746865207a65726f20616464726573734b4950373a207472616e7366657220746f206e6f6e204b495037526563656976657220696d706c656d656e7465724b4950373a207472616e7366657220746f20746865207a65726f206164647265737345786368616e6765206765744164647228696e646578293a20657863656564656420696e6465784b4950373a207472616e736665722066726f6d20746865207a65726f206164647265737345786368616e67652067657441646472416e6442616c616e636528696e646578293a20657863656564656420696e6465784b4950373a20617070726f76652066726f6d20746865207a65726f2061646472657373a165627a7a7230582076782ed30470f373de7b651257bc49f1d6d68b89f8c08a4898d0feed8d5cb28d0029",
  "source": "// SPDX-License-Identifier: GPL-3.0\r\n\r\npragma solidity ^0.5.6;\r\n\r\nimport \"./KIP7.sol\";\r\nimport \"./IFactory.sol\";\r\n\r\n\r\ninterface IExchange {\r\n    function ethToTokenSwap(uint256 _minTokens) external payable;\r\n\r\n    function ethToTokenTransfer(uint256 _minTokens, address _recipient)\r\n        external\r\n        payable;\r\n}\r\n\r\n// interface IFactory {\r\n//     function getExchange(address _tokenAddress) external returns (address);\r\n// }\r\n\r\n// uniswap v1 only KIP-7 to Klaytn\r\ncontract Exchange is KIP7 {\r\n    address public tokenAddress;\r\n    address public factoryAddress;\r\n\r\n    // address list \r\n    mapping (address => bool) private _isAddrExist;\r\n    mapping (uint256 => address) private _addrList;\r\n    uint256 private _addrCount = 0;\r\n\r\n    constructor(address _token) KIP7() public {\r\n        require(_token != address(0), \"invalid token address\");\r\n\r\n        tokenAddress = _token;\r\n        factoryAddress = msg.sender;\r\n    }\r\n\r\n    // address     LP   address \r\n    modifier checkAddr {\r\n        if (_isAddrExist[msg.sender]) {\r\n            _;\r\n        } else {\r\n            _addrList[_addrCount] = msg.sender;\r\n            _addrCount++;\r\n            _isAddrExist[msg.sender] = true;\r\n            _;\r\n        }\r\n    }\r\n\r\n    //   addr \r\n    function getAddrCount() public view returns (uint256) {\r\n        return _addrCount;\r\n    }\r\n\r\n    //  index address\r\n    function getAddr(uint256 index) public view returns (address) {\r\n        require (index < _addrCount, \"Exchange getAddr(index): exceeded index\");\r\n        return _addrList[index];\r\n    }\r\n\r\n    // index   balance\r\n    function getIndexBalance(uint256 index) public view returns (uint256) {\r\n        require (index < _addrCount, \"Exchange getAddrAndBalance(index): exceeded index\");\r\n        return balanceOf(_addrList[index]);\r\n    }\r\n\r\n    // addLiquidity        \r\n    function getMinimumTokenAmountToAddLiquidity(uint256 _ethAmount) public view returns (uint256) {\r\n        if (getReserve() == 0) {\r\n            return 0;\r\n        } else {\r\n            uint256 ethReserve = address(this).balance - _ethAmount;\r\n            uint256 tokenReserve = getReserve();\r\n            uint256 tokenAmount = (_ethAmount * tokenReserve) / ethReserve;\r\n            return tokenAmount;\r\n        }\r\n    }\r\n\r\n    // checkAddr modifier \r\n    function addLiquidity(uint256 _tokenAmount) checkAddr\r\n        public\r\n        payable\r\n        returns (uint256)\r\n    {\r\n        if (getReserve() == 0) {\r\n            KIP7 token = KIP7(tokenAddress);\r\n            require(_tokenAmount > 0, \"Exchange: invalid token amount\");\r\n            token.transferFrom(msg.sender, address(this), _tokenAmount);\r\n\r\n            uint256 liquidity = address(this).balance;\r\n            _mint(msg.sender, liquidity);\r\n\r\n            return liquidity;\r\n        } else {\r\n            uint256 ethReserve = address(this).balance - msg.value;\r\n            uint256 tokenReserve = getReserve();\r\n            uint256 tokenAmount = (msg.value * tokenReserve) / ethReserve;\r\n            require(_tokenAmount >= tokenAmount, \"insufficient token amount\");\r\n\r\n            KIP7 token = KIP7(tokenAddress);\r\n            token.transferFrom(msg.sender, address(this), tokenAmount);\r\n\r\n            uint256 liquidity = (msg.value * totalSupply()) / ethReserve;\r\n            _mint(msg.sender, liquidity);\r\n\r\n            return liquidity;\r\n        }\r\n    }\r\n\r\n    function removeLiquidity(uint256 _amount)\r\n        public\r\n        returns (uint256, uint256)\r\n    {\r\n        require(_amount > 0, \"invalid amount\");\r\n\r\n        uint256 ethAmount = (address(this).balance * _amount) / totalSupply();\r\n        uint256 tokenAmount = (getReserve() * _amount) / totalSupply();\r\n\r\n        _burn(msg.sender, _amount);\r\n        (msg.sender).transfer(ethAmount);\r\n        KIP7(tokenAddress).transfer(msg.sender, tokenAmount);\r\n\r\n        return (ethAmount, tokenAmount);\r\n    }\r\n\r\n    function getReserve() public view returns (uint256) {\r\n        return KIP7(tokenAddress).balanceOf(address(this));\r\n    }\r\n\r\n    function getTokenAmount(uint256 _ethSold) public view returns (uint256) {\r\n        require(_ethSold > 0, \"ethSold is too small\");\r\n\r\n        uint256 tokenReserve = getReserve();\r\n\r\n        return getAmount(_ethSold, address(this).balance, tokenReserve);\r\n    }\r\n\r\n    function getEthAmount(uint256 _tokenSold) public view returns (uint256) {\r\n        require(_tokenSold > 0, \"tokenSold is too small\");\r\n\r\n        uint256 tokenReserve = getReserve();\r\n\r\n        return getAmount(_tokenSold, tokenReserve, address(this).balance);\r\n    }\r\n\r\n    function ethToToken(uint256 _minTokens, address recipient) private {\r\n        uint256 tokenReserve = getReserve();\r\n        uint256 tokensBought = getAmount(\r\n            msg.value,\r\n            address(this).balance - msg.value,\r\n            tokenReserve\r\n        );\r\n\r\n        require(tokensBought >= _minTokens, \"insufficient output amount\");\r\n\r\n        IKIP7(tokenAddress).transfer(recipient, tokensBought);\r\n    }\r\n\r\n    function ethToTokenTransfer(uint256 _minTokens, address _recipient)\r\n        public\r\n        payable\r\n    {\r\n        ethToToken(_minTokens, _recipient);\r\n    }\r\n\r\n    function ethToTokenSwap(uint256 _minTokens) public payable {\r\n        ethToToken(_minTokens, msg.sender);\r\n    }\r\n\r\n    function tokenToEthSwap(uint256 _tokensSold, uint256 _minEth) public {\r\n        uint256 tokenReserve = getReserve();\r\n        uint256 ethBought = getAmount(\r\n            _tokensSold,\r\n            tokenReserve,\r\n            address(this).balance\r\n        );\r\n\r\n        require(ethBought >= _minEth, \"insufficient output amount\");\r\n\r\n        IKIP7(tokenAddress).transferFrom(\r\n            msg.sender,\r\n            address(this),\r\n            _tokensSold\r\n        );\r\n        (msg.sender).transfer(ethBought);\r\n    }\r\n\r\n    function tokenToTokenSwap(\r\n        uint256 _tokensSold,\r\n        uint256 _minTokensBought,\r\n        address _tokenAddress\r\n    ) public {\r\n        address exchangeAddress = IFactory(factoryAddress).getExchange(\r\n            _tokenAddress\r\n        );\r\n        require(\r\n            exchangeAddress != address(this) && exchangeAddress != address(0),\r\n            \"invalid exchange address\"\r\n        );\r\n\r\n        uint256 tokenReserve = getReserve();\r\n        uint256 ethBought = getAmount(\r\n            _tokensSold,\r\n            tokenReserve,\r\n            address(this).balance\r\n        );\r\n\r\n        IKIP7(tokenAddress).transferFrom(\r\n            msg.sender,\r\n            address(this),\r\n            _tokensSold\r\n        );\r\n\r\n        IExchange(exchangeAddress).ethToTokenTransfer.value(ethBought)(\r\n            _minTokensBought,\r\n            msg.sender\r\n        );\r\n    }\r\n\r\n    function getAmount(\r\n        uint256 inputAmount,\r\n        uint256 inputReserve,\r\n        uint256 outputReserve\r\n    ) private pure returns (uint256) {\r\n        require(inputReserve > 0 && outputReserve > 0, \"invalid reserves\");\r\n\r\n        //  0.3%\r\n        uint256 inputAmountWithFee = inputAmount * 997;\r\n        uint256 numerator = inputAmountWithFee * outputReserve;\r\n        uint256 denominator = (inputReserve * 1000) + inputAmountWithFee;\r\n\r\n        return numerator / denominator;\r\n    }\r\n\r\n    // LP      0\r\n    //    \r\n    // LPT ) klay pool * token pool / totalLPtoken^2\r\n    function getLiquidityPerToken () public view returns (uint256) {\r\n        uint256 numerator = address(this).balance * KIP7(tokenAddress).balanceOf(address(this)) * 1000000; // 1000000   \r\n\r\n        // LP  \r\n        uint256 denominator = totalSupply() * totalSupply();\r\n        if (numerator != 0) {\r\n            return numerator / denominator;\r\n        } else {\r\n            return 0;\r\n        }\r\n    }\r\n}",
  "sourcePath": "D:\\codestates\\section5\\project3\\beb-03-Kameleon\\contract\\contracts\\Exchange.sol",
  "compiler": {
    "name": "solc",
    "version": "0.5.6+commit.b259423e.Emscripten.clang"
  },
  "schemaVersion": "3.4.7",
  "updatedAt": "2022-05-16T06:57:56.727Z",
  "networkType": "ethereum",
  "devdoc": {
    "methods": {
      "allowance(address,address)": {
        "details": "See `IKIP7.allowance`.\r"
      },
      "approve(address,uint256)": {
        "details": "See `IKIP7.approve`.\r      * Requirements:\r      * - `spender` cannot be the zero address.\r"
      },
      "balanceOf(address)": {
        "details": "See `IKIP7.balanceOf`.\r"
      },
      "safeTransfer(address,uint256)": {
        "details": "Moves `amount` tokens from the caller's account to `recipient`.\r"
      },
      "safeTransfer(address,uint256,bytes)": {
        "details": "Moves `amount` tokens from the caller's account to `recipient`.\r"
      },
      "safeTransferFrom(address,address,uint256)": {
        "details": "Moves `amount` tokens from `sender` to `recipient` using the allowance mechanism.\r `amount` is then deducted from the caller's allowance.\r"
      },
      "safeTransferFrom(address,address,uint256,bytes)": {
        "details": "Moves `amount` tokens from `sender` to `recipient` using the allowance mechanism.\r `amount` is then deducted from the caller's allowance.\r"
      },
      "supportsInterface(bytes4)": {
        "details": "See `IKIP13.supportsInterface`.\r      * Time complexity O(1), guaranteed to always use less than 30 000 gas.\r"
      },
      "totalSupply()": {
        "details": "See `IKIP7.totalSupply`.\r"
      },
      "transfer(address,uint256)": {
        "details": "See `IKIP7.transfer`.\r      * Requirements:\r      * - `recipient` cannot be the zero address.\r - the caller must have a balance of at least `amount`.\r"
      },
      "transferFrom(address,address,uint256)": {
        "details": "See `IKIP7.transferFrom`.\r      * Emits an `Approval` event indicating the updated allowance. This is not\r required by the KIP. See the note at the beginning of `KIP7`;\r      * Requirements:\r - `sender` and `recipient` cannot be the zero address.\r - `sender` must have a balance of at least `value`.\r - the caller must have allowance for `sender`'s tokens of at least\r `amount`.\r"
      }
    }
  },
  "userdoc": {
    "methods": {}
  }
}