{
  "contractName": "Exchange",
  "abi": [
    {
      "constant": true,
      "inputs": [
        {
          "name": "interfaceId",
          "type": "bytes4"
        }
      ],
      "name": "supportsInterface",
      "outputs": [
        {
          "name": "",
          "type": "bool"
        }
      ],
      "payable": false,
      "stateMutability": "view",
      "type": "function"
    },
    {
      "constant": false,
      "inputs": [
        {
          "name": "spender",
          "type": "address"
        },
        {
          "name": "value",
          "type": "uint256"
        }
      ],
      "name": "approve",
      "outputs": [
        {
          "name": "",
          "type": "bool"
        }
      ],
      "payable": false,
      "stateMutability": "nonpayable",
      "type": "function"
    },
    {
      "constant": true,
      "inputs": [],
      "name": "totalSupply",
      "outputs": [
        {
          "name": "",
          "type": "uint256"
        }
      ],
      "payable": false,
      "stateMutability": "view",
      "type": "function"
    },
    {
      "constant": false,
      "inputs": [
        {
          "name": "sender",
          "type": "address"
        },
        {
          "name": "recipient",
          "type": "address"
        },
        {
          "name": "amount",
          "type": "uint256"
        }
      ],
      "name": "transferFrom",
      "outputs": [
        {
          "name": "",
          "type": "bool"
        }
      ],
      "payable": false,
      "stateMutability": "nonpayable",
      "type": "function"
    },
    {
      "constant": false,
      "inputs": [
        {
          "name": "recipient",
          "type": "address"
        },
        {
          "name": "amount",
          "type": "uint256"
        }
      ],
      "name": "safeTransfer",
      "outputs": [],
      "payable": false,
      "stateMutability": "nonpayable",
      "type": "function"
    },
    {
      "constant": false,
      "inputs": [
        {
          "name": "sender",
          "type": "address"
        },
        {
          "name": "recipient",
          "type": "address"
        },
        {
          "name": "amount",
          "type": "uint256"
        }
      ],
      "name": "safeTransferFrom",
      "outputs": [],
      "payable": false,
      "stateMutability": "nonpayable",
      "type": "function"
    },
    {
      "constant": true,
      "inputs": [
        {
          "name": "account",
          "type": "address"
        }
      ],
      "name": "balanceOf",
      "outputs": [
        {
          "name": "",
          "type": "uint256"
        }
      ],
      "payable": false,
      "stateMutability": "view",
      "type": "function"
    },
    {
      "constant": true,
      "inputs": [],
      "name": "factoryAddress",
      "outputs": [
        {
          "name": "",
          "type": "address"
        }
      ],
      "payable": false,
      "stateMutability": "view",
      "type": "function"
    },
    {
      "constant": true,
      "inputs": [],
      "name": "tokenAddress",
      "outputs": [
        {
          "name": "",
          "type": "address"
        }
      ],
      "payable": false,
      "stateMutability": "view",
      "type": "function"
    },
    {
      "constant": false,
      "inputs": [
        {
          "name": "recipient",
          "type": "address"
        },
        {
          "name": "amount",
          "type": "uint256"
        }
      ],
      "name": "transfer",
      "outputs": [
        {
          "name": "",
          "type": "bool"
        }
      ],
      "payable": false,
      "stateMutability": "nonpayable",
      "type": "function"
    },
    {
      "constant": false,
      "inputs": [
        {
          "name": "sender",
          "type": "address"
        },
        {
          "name": "recipient",
          "type": "address"
        },
        {
          "name": "amount",
          "type": "uint256"
        },
        {
          "name": "data",
          "type": "bytes"
        }
      ],
      "name": "safeTransferFrom",
      "outputs": [],
      "payable": false,
      "stateMutability": "nonpayable",
      "type": "function"
    },
    {
      "constant": true,
      "inputs": [
        {
          "name": "owner",
          "type": "address"
        },
        {
          "name": "spender",
          "type": "address"
        }
      ],
      "name": "allowance",
      "outputs": [
        {
          "name": "",
          "type": "uint256"
        }
      ],
      "payable": false,
      "stateMutability": "view",
      "type": "function"
    },
    {
      "constant": false,
      "inputs": [
        {
          "name": "recipient",
          "type": "address"
        },
        {
          "name": "amount",
          "type": "uint256"
        },
        {
          "name": "data",
          "type": "bytes"
        }
      ],
      "name": "safeTransfer",
      "outputs": [],
      "payable": false,
      "stateMutability": "nonpayable",
      "type": "function"
    },
    {
      "inputs": [
        {
          "name": "_token",
          "type": "address"
        }
      ],
      "payable": false,
      "stateMutability": "nonpayable",
      "type": "constructor"
    },
    {
      "anonymous": false,
      "inputs": [
        {
          "indexed": true,
          "name": "from",
          "type": "address"
        },
        {
          "indexed": true,
          "name": "to",
          "type": "address"
        },
        {
          "indexed": false,
          "name": "value",
          "type": "uint256"
        }
      ],
      "name": "Transfer",
      "type": "event"
    },
    {
      "anonymous": false,
      "inputs": [
        {
          "indexed": true,
          "name": "owner",
          "type": "address"
        },
        {
          "indexed": true,
          "name": "spender",
          "type": "address"
        },
        {
          "indexed": false,
          "name": "value",
          "type": "uint256"
        }
      ],
      "name": "Approval",
      "type": "event"
    },
    {
      "constant": true,
      "inputs": [],
      "name": "getAddrCount",
      "outputs": [
        {
          "name": "",
          "type": "uint256"
        }
      ],
      "payable": false,
      "stateMutability": "view",
      "type": "function"
    },
    {
      "constant": true,
      "inputs": [
        {
          "name": "index",
          "type": "uint256"
        }
      ],
      "name": "getAddr",
      "outputs": [
        {
          "name": "",
          "type": "address"
        }
      ],
      "payable": false,
      "stateMutability": "view",
      "type": "function"
    },
    {
      "constant": true,
      "inputs": [
        {
          "name": "index",
          "type": "uint256"
        }
      ],
      "name": "getIndexBalance",
      "outputs": [
        {
          "name": "",
          "type": "uint256"
        }
      ],
      "payable": false,
      "stateMutability": "view",
      "type": "function"
    },
    {
      "constant": false,
      "inputs": [
        {
          "name": "_tokenAmount",
          "type": "uint256"
        }
      ],
      "name": "addLiquidity",
      "outputs": [
        {
          "name": "",
          "type": "uint256"
        }
      ],
      "payable": true,
      "stateMutability": "payable",
      "type": "function"
    },
    {
      "constant": false,
      "inputs": [
        {
          "name": "_amount",
          "type": "uint256"
        }
      ],
      "name": "removeLiquidity",
      "outputs": [
        {
          "name": "",
          "type": "uint256"
        },
        {
          "name": "",
          "type": "uint256"
        }
      ],
      "payable": false,
      "stateMutability": "nonpayable",
      "type": "function"
    },
    {
      "constant": true,
      "inputs": [],
      "name": "getReserve",
      "outputs": [
        {
          "name": "",
          "type": "uint256"
        }
      ],
      "payable": false,
      "stateMutability": "view",
      "type": "function"
    },
    {
      "constant": true,
      "inputs": [
        {
          "name": "_ethSold",
          "type": "uint256"
        }
      ],
      "name": "getTokenAmount",
      "outputs": [
        {
          "name": "",
          "type": "uint256"
        }
      ],
      "payable": false,
      "stateMutability": "view",
      "type": "function"
    },
    {
      "constant": true,
      "inputs": [
        {
          "name": "_tokenSold",
          "type": "uint256"
        }
      ],
      "name": "getEthAmount",
      "outputs": [
        {
          "name": "",
          "type": "uint256"
        }
      ],
      "payable": false,
      "stateMutability": "view",
      "type": "function"
    },
    {
      "constant": false,
      "inputs": [
        {
          "name": "_minTokens",
          "type": "uint256"
        },
        {
          "name": "_recipient",
          "type": "address"
        }
      ],
      "name": "ethToTokenTransfer",
      "outputs": [],
      "payable": true,
      "stateMutability": "payable",
      "type": "function"
    },
    {
      "constant": false,
      "inputs": [
        {
          "name": "_minTokens",
          "type": "uint256"
        }
      ],
      "name": "ethToTokenSwap",
      "outputs": [],
      "payable": true,
      "stateMutability": "payable",
      "type": "function"
    },
    {
      "constant": false,
      "inputs": [
        {
          "name": "_tokensSold",
          "type": "uint256"
        },
        {
          "name": "_minEth",
          "type": "uint256"
        }
      ],
      "name": "tokenToEthSwap",
      "outputs": [],
      "payable": false,
      "stateMutability": "nonpayable",
      "type": "function"
    },
    {
      "constant": false,
      "inputs": [
        {
          "name": "_tokensSold",
          "type": "uint256"
        },
        {
          "name": "_minTokensBought",
          "type": "uint256"
        },
        {
          "name": "_tokenAddress",
          "type": "address"
        }
      ],
      "name": "tokenToTokenSwap",
      "outputs": [],
      "payable": false,
      "stateMutability": "nonpayable",
      "type": "function"
    },
    {
      "constant": true,
      "inputs": [],
      "name": "getLiquidityPerToken",
      "outputs": [
        {
          "name": "",
          "type": "uint256"
        }
      ],
      "payable": false,
      "stateMutability": "view",
      "type": "function"
    }
  ],
  "bytecode": "0x608060405260006008553480156200001657600080fd5b5060405160208062003787833981018060405260208110156200003857600080fd5b8101908080519060200190929190505050620000866301ffc9a77c010000000000000000000000000000000000000000000000000000000002620001f0640100000000026401000000009004565b620000c363657873717c010000000000000000000000000000000000000000000000000000000002620001f0640100000000026401000000009004565b600073ffffffffffffffffffffffffffffffffffffffff168173ffffffffffffffffffffffffffffffffffffffff16141562000167576040517f08c379a00000000000000000000000000000000000000000000000000000000081526004018080602001828103825260158152602001807f696e76616c696420746f6b656e2061646472657373000000000000000000000081525060200191505060405180910390fd5b80600460006101000a81548173ffffffffffffffffffffffffffffffffffffffff021916908373ffffffffffffffffffffffffffffffffffffffff16021790555033600560006101000a81548173ffffffffffffffffffffffffffffffffffffffff021916908373ffffffffffffffffffffffffffffffffffffffff1602179055505062000315565b63ffffffff7c010000000000000000000000000000000000000000000000000000000002817bffffffffffffffffffffffffffffffffffffffffffffffffffffffff19161415620002a9576040517f08c379a000000000000000000000000000000000000000000000000000000000815260040180806020018281038252601b8152602001807f4b495031333a20696e76616c696420696e74657266616365206964000000000081525060200191505060405180910390fd5b6001600080837bffffffffffffffffffffffffffffffffffffffffffffffffffffffff19167bffffffffffffffffffffffffffffffffffffffffffffffffffffffff1916815260200190815260200160002060006101000a81548160ff02191690831515021790555050565b61346280620003256000396000f3fe60806040526004361061019e576000357c0100000000000000000000000000000000000000000000000000000000900480639d76ea58116100ee578063dd62ed3e116100a7578063eb79554911610081578063eb79554914610a22578063f7a7e32414610b14578063f979dcd714610b79578063fdf25b1314610ba75761019e565b8063dd62ed3e14610909578063ddb01eba1461098e578063e0486c8a146109dd5761019e565b80639d76ea5814610638578063a432904d1461068f578063a9059cbb146106ba578063b88d4fde1461072d578063c2507ac11461083f578063d81f84b71461088e5761019e565b806342842e0e1161015b57806370a082311161013557806370a08231146104d75780638fc7a25d1461053c578063966dae0e1461058b5780639c8f9f23146105e25761019e565b806342842e0e146103ef57806351c6590a1461046a57806359bf5d39146104ac5761019e565b806301ffc9a7146101a3578063095ea7b31461021557806318160ddd1461028857806323b872dd146102b3578063389d9a4014610346578063423f6cef14610394575b600080fd5b3480156101af57600080fd5b506101fb600480360360208110156101c657600080fd5b8101908080357bffffffffffffffffffffffffffffffffffffffffffffffffffffffff19169060200190929190505050610bd2565b604051808215151515815260200191505060405180910390f35b34801561022157600080fd5b5061026e6004803603604081101561023857600080fd5b81019080803573ffffffffffffffffffffffffffffffffffffffff16906020019092919080359060200190929190505050610c39565b604051808215151515815260200191505060405180910390f35b34801561029457600080fd5b5061029d610c50565b6040518082815260200191505060405180910390f35b3480156102bf57600080fd5b5061032c600480360360608110156102d657600080fd5b81019080803573ffffffffffffffffffffffffffffffffffffffff169060200190929190803573ffffffffffffffffffffffffffffffffffffffff16906020019092919080359060200190929190505050610c5a565b604051808215151515815260200191505060405180910390f35b6103926004803603604081101561035c57600080fd5b8101908080359060200190929190803573ffffffffffffffffffffffffffffffffffffffff169060200190929190505050610d0b565b005b3480156103a057600080fd5b506103ed600480360360408110156103b757600080fd5b81019080803573ffffffffffffffffffffffffffffffffffffffff16906020019092919080359060200190929190505050610d19565b005b3480156103fb57600080fd5b506104686004803603606081101561041257600080fd5b81019080803573ffffffffffffffffffffffffffffffffffffffff169060200190929190803573ffffffffffffffffffffffffffffffffffffffff16906020019092919080359060200190929190505050610d37565b005b6104966004803603602081101561048057600080fd5b8101908080359060200190929190505050610d57565b6040518082815260200191505060405180910390f35b3480156104b857600080fd5b506104c1611590565b6040518082815260200191505060405180910390f35b3480156104e357600080fd5b50610526600480360360208110156104fa57600080fd5b81019080803573ffffffffffffffffffffffffffffffffffffffff16906020019092919050505061168d565b6040518082815260200191505060405180910390f35b34801561054857600080fd5b506105756004803603602081101561055f57600080fd5b81019080803590602001909291905050506116d6565b6040518082815260200191505060405180910390f35b34801561059757600080fd5b506105a0611783565b604051808273ffffffffffffffffffffffffffffffffffffffff1673ffffffffffffffffffffffffffffffffffffffff16815260200191505060405180910390f35b3480156105ee57600080fd5b5061061b6004803603602081101561060557600080fd5b81019080803590602001909291905050506117a9565b604051808381526020018281526020019250505060405180910390f35b34801561064457600080fd5b5061064d6119cd565b604051808273ffffffffffffffffffffffffffffffffffffffff1673ffffffffffffffffffffffffffffffffffffffff16815260200191505060405180910390f35b34801561069b57600080fd5b506106a46119f3565b6040518082815260200191505060405180910390f35b3480156106c657600080fd5b50610713600480360360408110156106dd57600080fd5b81019080803573ffffffffffffffffffffffffffffffffffffffff169060200190929190803590602001909291905050506119fd565b604051808215151515815260200191505060405180910390f35b34801561073957600080fd5b5061083d6004803603608081101561075057600080fd5b81019080803573ffffffffffffffffffffffffffffffffffffffff169060200190929190803573ffffffffffffffffffffffffffffffffffffffff16906020019092919080359060200190929190803590602001906401000000008111156107b757600080fd5b8201836020820111156107c957600080fd5b803590602001918460018302840111640100000000831117156107eb57600080fd5b91908080601f016020809104026020016040519081016040528093929190818152602001838380828437600081840152601f19601f820116905080830192505050505050509192919290505050611a14565b005b34801561084b57600080fd5b506108786004803603602081101561086257600080fd5b8101908080359060200190929190505050611a87565b6040518082815260200191505060405180910390f35b34801561089a57600080fd5b506108c7600480360360208110156108b157600080fd5b8101908080359060200190929190505050611b34565b604051808273ffffffffffffffffffffffffffffffffffffffff1673ffffffffffffffffffffffffffffffffffffffff16815260200191505060405180910390f35b34801561091557600080fd5b506109786004803603604081101561092c57600080fd5b81019080803573ffffffffffffffffffffffffffffffffffffffff169060200190929190803573ffffffffffffffffffffffffffffffffffffffff169060200190929190505050611bcb565b6040518082815260200191505060405180910390f35b34801561099a57600080fd5b506109c7600480360360208110156109b157600080fd5b8101908080359060200190929190505050611c52565b6040518082815260200191505060405180910390f35b3480156109e957600080fd5b50610a2060048036036040811015610a0057600080fd5b810190808035906020019092919080359060200190929190505050611cf1565b005b348015610a2e57600080fd5b50610b1260048036036060811015610a4557600080fd5b81019080803573ffffffffffffffffffffffffffffffffffffffff1690602001909291908035906020019092919080359060200190640100000000811115610a8c57600080fd5b820183602082011115610a9e57600080fd5b80359060200191846001830284011164010000000083111715610ac057600080fd5b91908080601f016020809104026020016040519081016040528093929190818152602001838380828437600081840152601f19601f820116905080830192505050505050509192919290505050611f1b565b005b348015610b2057600080fd5b50610b7760048036036060811015610b3757600080fd5b810190808035906020019092919080359060200190929190803573ffffffffffffffffffffffffffffffffffffffff169060200190929190505050611f8c565b005b610ba560048036036020811015610b8f57600080fd5b810190808035906020019092919050505061238c565b005b348015610bb357600080fd5b50610bbc612399565b6040518082815260200191505060405180910390f35b6000806000837bffffffffffffffffffffffffffffffffffffffffffffffffffffffff19167bffffffffffffffffffffffffffffffffffffffffffffffffffffffff1916815260200190815260200160002060009054906101000a900460ff169050919050565b6000610c463384846124ec565b6001905092915050565b6000600354905090565b6000610c678484846126e3565b610d008433610cfb85600260008a73ffffffffffffffffffffffffffffffffffffffff1673ffffffffffffffffffffffffffffffffffffffff16815260200190815260200160002060003373ffffffffffffffffffffffffffffffffffffffff1673ffffffffffffffffffffffffffffffffffffffff1681526020019081526020016000205461298390919063ffffffff16565b6124ec565b600190509392505050565b610d1582826129cd565b5050565b610d33828260405180602001604052806000815250611f1b565b5050565b610d5283838360405180602001604052806000815250611a14565b505050565b6000600660003373ffffffffffffffffffffffffffffffffffffffff1673ffffffffffffffffffffffffffffffffffffffff16815260200190815260200160002060009054906101000a900460ff161561113e576000610db5611590565b1415610f25576000600460009054906101000a900473ffffffffffffffffffffffffffffffffffffffff1690508073ffffffffffffffffffffffffffffffffffffffff166323b872dd3330866040518463ffffffff167c0100000000000000000000000000000000000000000000000000000000028152600401808473ffffffffffffffffffffffffffffffffffffffff1673ffffffffffffffffffffffffffffffffffffffff1681526020018373ffffffffffffffffffffffffffffffffffffffff1673ffffffffffffffffffffffffffffffffffffffff1681526020018281526020019350505050602060405180830381600087803b158015610eb957600080fd5b505af1158015610ecd573d6000803e3d6000fd5b505050506040513d6020811015610ee357600080fd5b81019080805190602001909291905050505060003073ffffffffffffffffffffffffffffffffffffffff16319050610f1b3382612b7e565b8092505050611139565b6000343073ffffffffffffffffffffffffffffffffffffffff16310390506000610f4d611590565b905060008282340281610f5c57fe5b04905080851015610fd5576040517f08c379a00000000000000000000000000000000000000000000000000000000081526004018080602001828103825260198152602001807f696e73756666696369656e7420746f6b656e20616d6f756e740000000000000081525060200191505060405180910390fd5b6000600460009054906101000a900473ffffffffffffffffffffffffffffffffffffffff1690508073ffffffffffffffffffffffffffffffffffffffff166323b872dd3330856040518463ffffffff167c0100000000000000000000000000000000000000000000000000000000028152600401808473ffffffffffffffffffffffffffffffffffffffff1673ffffffffffffffffffffffffffffffffffffffff1681526020018373ffffffffffffffffffffffffffffffffffffffff1673ffffffffffffffffffffffffffffffffffffffff1681526020018281526020019350505050602060405180830381600087803b1580156110d357600080fd5b505af11580156110e7573d6000803e3d6000fd5b505050506040513d60208110156110fd57600080fd5b81019080805190602001909291905050505060008461111a610c50565b34028161112357fe5b0490506111303382612b7e565b80955050505050505b61158b565b3360076000600854815260200190815260200160002060006101000a81548173ffffffffffffffffffffffffffffffffffffffff021916908373ffffffffffffffffffffffffffffffffffffffff1602179055506008600081548092919060010191905055506001600660003373ffffffffffffffffffffffffffffffffffffffff1673ffffffffffffffffffffffffffffffffffffffff16815260200190815260200160002060006101000a81548160ff0219169083151502179055506000611206611590565b1415611376576000600460009054906101000a900473ffffffffffffffffffffffffffffffffffffffff1690508073ffffffffffffffffffffffffffffffffffffffff166323b872dd3330866040518463ffffffff167c0100000000000000000000000000000000000000000000000000000000028152600401808473ffffffffffffffffffffffffffffffffffffffff1673ffffffffffffffffffffffffffffffffffffffff1681526020018373ffffffffffffffffffffffffffffffffffffffff1673ffffffffffffffffffffffffffffffffffffffff1681526020018281526020019350505050602060405180830381600087803b15801561130a57600080fd5b505af115801561131e573d6000803e3d6000fd5b505050506040513d602081101561133457600080fd5b81019080805190602001909291905050505060003073ffffffffffffffffffffffffffffffffffffffff1631905061136c3382612b7e565b809250505061158a565b6000343073ffffffffffffffffffffffffffffffffffffffff1631039050600061139e611590565b9050600082823402816113ad57fe5b04905080851015611426576040517f08c379a00000000000000000000000000000000000000000000000000000000081526004018080602001828103825260198152602001807f696e73756666696369656e7420746f6b656e20616d6f756e740000000000000081525060200191505060405180910390fd5b6000600460009054906101000a900473ffffffffffffffffffffffffffffffffffffffff1690508073ffffffffffffffffffffffffffffffffffffffff166323b872dd3330856040518463ffffffff167c0100000000000000000000000000000000000000000000000000000000028152600401808473ffffffffffffffffffffffffffffffffffffffff1673ffffffffffffffffffffffffffffffffffffffff1681526020018373ffffffffffffffffffffffffffffffffffffffff1673ffffffffffffffffffffffffffffffffffffffff1681526020018281526020019350505050602060405180830381600087803b15801561152457600080fd5b505af1158015611538573d6000803e3d6000fd5b505050506040513d602081101561154e57600080fd5b81019080805190602001909291905050505060008461156b610c50565b34028161157457fe5b0490506115813382612b7e565b80955050505050505b5b919050565b6000600460009054906101000a900473ffffffffffffffffffffffffffffffffffffffff1673ffffffffffffffffffffffffffffffffffffffff166370a08231306040518263ffffffff167c0100000000000000000000000000000000000000000000000000000000028152600401808273ffffffffffffffffffffffffffffffffffffffff1673ffffffffffffffffffffffffffffffffffffffff16815260200191505060206040518083038186803b15801561164d57600080fd5b505afa158015611661573d6000803e3d6000fd5b505050506040513d602081101561167757600080fd5b8101908080519060200190929190505050905090565b6000600160008373ffffffffffffffffffffffffffffffffffffffff1673ffffffffffffffffffffffffffffffffffffffff168152602001908152602001600020549050919050565b600080821161174d576040517f08c379a00000000000000000000000000000000000000000000000000000000081526004018080602001828103825260168152602001807f746f6b656e536f6c6420697320746f6f20736d616c6c0000000000000000000081525060200191505060405180910390fd5b6000611757611590565b905061177b83823073ffffffffffffffffffffffffffffffffffffffff1631612d3b565b915050919050565b600560009054906101000a900473ffffffffffffffffffffffffffffffffffffffff1681565b60008060008311611822576040517f08c379a000000000000000000000000000000000000000000000000000000000815260040180806020018281038252600e8152602001807f696e76616c696420616d6f756e7400000000000000000000000000000000000081525060200191505060405180910390fd5b600061182c610c50565b843073ffffffffffffffffffffffffffffffffffffffff1631028161184d57fe5b049050600061185a610c50565b85611863611590565b028161186b57fe5b0490506118783386612ded565b3373ffffffffffffffffffffffffffffffffffffffff166108fc839081150290604051600060405180830381858888f193505050501580156118be573d6000803e3d6000fd5b50600460009054906101000a900473ffffffffffffffffffffffffffffffffffffffff1673ffffffffffffffffffffffffffffffffffffffff1663a9059cbb33836040518363ffffffff167c0100000000000000000000000000000000000000000000000000000000028152600401808373ffffffffffffffffffffffffffffffffffffffff1673ffffffffffffffffffffffffffffffffffffffff16815260200182815260200192505050602060405180830381600087803b15801561198457600080fd5b505af1158015611998573d6000803e3d6000fd5b505050506040513d60208110156119ae57600080fd5b8101908080519060200190929190505050508181935093505050915091565b600460009054906101000a900473ffffffffffffffffffffffffffffffffffffffff1681565b6000600854905090565b6000611a0a3384846126e3565b6001905092915050565b611a1f848484610c5a565b50611a2c84848484612faa565b611a81576040517f08c379a000000000000000000000000000000000000000000000000000000000815260040180806020018281038252602e815260200180613348602e913960400191505060405180910390fd5b50505050565b6000808211611afe576040517f08c379a00000000000000000000000000000000000000000000000000000000081526004018080602001828103825260148152602001807f657468536f6c6420697320746f6f20736d616c6c00000000000000000000000081525060200191505060405180910390fd5b6000611b08611590565b9050611b2c833073ffffffffffffffffffffffffffffffffffffffff163183612d3b565b915050919050565b60006008548210611b90576040517f08c379a00000000000000000000000000000000000000000000000000000000081526004018080602001828103825260278152602001806133986027913960400191505060405180910390fd5b6007600083815260200190815260200160002060009054906101000a900473ffffffffffffffffffffffffffffffffffffffff169050919050565b6000600260008473ffffffffffffffffffffffffffffffffffffffff1673ffffffffffffffffffffffffffffffffffffffff16815260200190815260200160002060008373ffffffffffffffffffffffffffffffffffffffff1673ffffffffffffffffffffffffffffffffffffffff16815260200190815260200160002054905092915050565b60006008548210611cae576040517f08c379a00000000000000000000000000000000000000000000000000000000081526004018080602001828103825260318152602001806133e36031913960400191505060405180910390fd5b611cea6007600084815260200190815260200160002060009054906101000a900473ffffffffffffffffffffffffffffffffffffffff1661168d565b9050919050565b6000611cfb611590565b90506000611d2184833073ffffffffffffffffffffffffffffffffffffffff1631612d3b565b905082811015611d99576040517f08c379a000000000000000000000000000000000000000000000000000000000815260040180806020018281038252601a8152602001807f696e73756666696369656e74206f757470757420616d6f756e7400000000000081525060200191505060405180910390fd5b600460009054906101000a900473ffffffffffffffffffffffffffffffffffffffff1673ffffffffffffffffffffffffffffffffffffffff166323b872dd3330876040518463ffffffff167c0100000000000000000000000000000000000000000000000000000000028152600401808473ffffffffffffffffffffffffffffffffffffffff1673ffffffffffffffffffffffffffffffffffffffff1681526020018373ffffffffffffffffffffffffffffffffffffffff1673ffffffffffffffffffffffffffffffffffffffff1681526020018281526020019350505050602060405180830381600087803b158015611e9257600080fd5b505af1158015611ea6573d6000803e3d6000fd5b505050506040513d6020811015611ebc57600080fd5b8101908080519060200190929190505050503373ffffffffffffffffffffffffffffffffffffffff166108fc829081150290604051600060405180830381858888f19350505050158015611f14573d6000803e3d6000fd5b5050505050565b611f2583836119fd565b50611f3233848484612faa565b611f87576040517f08c379a000000000000000000000000000000000000000000000000000000000815260040180806020018281038252602e815260200180613348602e913960400191505060405180910390fd5b505050565b6000600560009054906101000a900473ffffffffffffffffffffffffffffffffffffffff1673ffffffffffffffffffffffffffffffffffffffff166306f2bf62836040518263ffffffff167c0100000000000000000000000000000000000000000000000000000000028152600401808273ffffffffffffffffffffffffffffffffffffffff1673ffffffffffffffffffffffffffffffffffffffff16815260200191505060206040518083038186803b15801561204957600080fd5b505afa15801561205d573d6000803e3d6000fd5b505050506040513d602081101561207357600080fd5b810190808051906020019092919050505090503073ffffffffffffffffffffffffffffffffffffffff168173ffffffffffffffffffffffffffffffffffffffff16141580156120ef5750600073ffffffffffffffffffffffffffffffffffffffff168173ffffffffffffffffffffffffffffffffffffffff1614155b612161576040517f08c379a00000000000000000000000000000000000000000000000000000000081526004018080602001828103825260188152602001807f696e76616c69642065786368616e67652061646472657373000000000000000081525060200191505060405180910390fd5b600061216b611590565b9050600061219186833073ffffffffffffffffffffffffffffffffffffffff1631612d3b565b9050600460009054906101000a900473ffffffffffffffffffffffffffffffffffffffff1673ffffffffffffffffffffffffffffffffffffffff166323b872dd3330896040518463ffffffff167c0100000000000000000000000000000000000000000000000000000000028152600401808473ffffffffffffffffffffffffffffffffffffffff1673ffffffffffffffffffffffffffffffffffffffff1681526020018373ffffffffffffffffffffffffffffffffffffffff1673ffffffffffffffffffffffffffffffffffffffff1681526020018281526020019350505050602060405180830381600087803b15801561228c57600080fd5b505af11580156122a0573d6000803e3d6000fd5b505050506040513d60208110156122b657600080fd5b8101908080519060200190929190505050508273ffffffffffffffffffffffffffffffffffffffff1663389d9a408287336040518463ffffffff167c0100000000000000000000000000000000000000000000000000000000028152600401808381526020018273ffffffffffffffffffffffffffffffffffffffff1673ffffffffffffffffffffffffffffffffffffffff168152602001925050506000604051808303818588803b15801561236b57600080fd5b505af115801561237f573d6000803e3d6000fd5b5050505050505050505050565b61239681336129cd565b50565b600080620f4240600460009054906101000a900473ffffffffffffffffffffffffffffffffffffffff1673ffffffffffffffffffffffffffffffffffffffff166370a08231306040518263ffffffff167c0100000000000000000000000000000000000000000000000000000000028152600401808273ffffffffffffffffffffffffffffffffffffffff1673ffffffffffffffffffffffffffffffffffffffff16815260200191505060206040518083038186803b15801561245b57600080fd5b505afa15801561246f573d6000803e3d6000fd5b505050506040513d602081101561248557600080fd5b81019080805190602001909291905050503073ffffffffffffffffffffffffffffffffffffffff16310202905060006124bc610c50565b6124c4610c50565b029050600082146124e2578082816124d857fe5b04925050506124e9565b6000925050505b90565b600073ffffffffffffffffffffffffffffffffffffffff168373ffffffffffffffffffffffffffffffffffffffff161415612572576040517f08c379a00000000000000000000000000000000000000000000000000000000081526004018080602001828103825260238152602001806134146023913960400191505060405180910390fd5b600073ffffffffffffffffffffffffffffffffffffffff168273ffffffffffffffffffffffffffffffffffffffff1614156125f8576040517f08c379a00000000000000000000000000000000000000000000000000000000081526004018080602001828103825260218152602001806133276021913960400191505060405180910390fd5b80600260008573ffffffffffffffffffffffffffffffffffffffff1673ffffffffffffffffffffffffffffffffffffffff16815260200190815260200160002060008473ffffffffffffffffffffffffffffffffffffffff1673ffffffffffffffffffffffffffffffffffffffff168152602001908152602001600020819055508173ffffffffffffffffffffffffffffffffffffffff168373ffffffffffffffffffffffffffffffffffffffff167f8c5be1e5ebec7d5bd14f71427d1e84f3dd0314c0f7b2291e5b200ac8c7c3b925836040518082815260200191505060405180910390a3505050565b600073ffffffffffffffffffffffffffffffffffffffff168373ffffffffffffffffffffffffffffffffffffffff161415612769576040517f08c379a00000000000000000000000000000000000000000000000000000000081526004018080602001828103825260248152602001806133bf6024913960400191505060405180910390fd5b600073ffffffffffffffffffffffffffffffffffffffff168273ffffffffffffffffffffffffffffffffffffffff1614156127ef576040517f08c379a00000000000000000000000000000000000000000000000000000000081526004018080602001828103825260228152602001806133766022913960400191505060405180910390fd5b61284181600160008673ffffffffffffffffffffffffffffffffffffffff1673ffffffffffffffffffffffffffffffffffffffff1681526020019081526020016000205461298390919063ffffffff16565b600160008573ffffffffffffffffffffffffffffffffffffffff1673ffffffffffffffffffffffffffffffffffffffff168152602001908152602001600020819055506128d681600160008573ffffffffffffffffffffffffffffffffffffffff1673ffffffffffffffffffffffffffffffffffffffff168152602001908152602001600020546131cb90919063ffffffff16565b600160008473ffffffffffffffffffffffffffffffffffffffff1673ffffffffffffffffffffffffffffffffffffffff168152602001908152602001600020819055508173ffffffffffffffffffffffffffffffffffffffff168373ffffffffffffffffffffffffffffffffffffffff167fddf252ad1be2c89b69c2b068fc378daa952ba7f163c4a11628f55a4df523b3ef836040518082815260200191505060405180910390a3505050565b60006129c583836040518060400160405280601e81526020017f536166654d6174683a207375627472616374696f6e206f766572666c6f770000815250613253565b905092915050565b60006129d7611590565b905060006129ff34343073ffffffffffffffffffffffffffffffffffffffff16310384612d3b565b905083811015612a77576040517f08c379a000000000000000000000000000000000000000000000000000000000815260040180806020018281038252601a8152602001807f696e73756666696369656e74206f757470757420616d6f756e7400000000000081525060200191505060405180910390fd5b600460009054906101000a900473ffffffffffffffffffffffffffffffffffffffff1673ffffffffffffffffffffffffffffffffffffffff1663a9059cbb84836040518363ffffffff167c0100000000000000000000000000000000000000000000000000000000028152600401808373ffffffffffffffffffffffffffffffffffffffff1673ffffffffffffffffffffffffffffffffffffffff16815260200182815260200192505050602060405180830381600087803b158015612b3c57600080fd5b505af1158015612b50573d6000803e3d6000fd5b505050506040513d6020811015612b6657600080fd5b81019080805190602001909291905050505050505050565b600073ffffffffffffffffffffffffffffffffffffffff168273ffffffffffffffffffffffffffffffffffffffff161415612c21576040517f08c379a000000000000000000000000000000000000000000000000000000000815260040180806020018281038252601e8152602001807f4b4950373a206d696e7420746f20746865207a65726f2061646472657373000081525060200191505060405180910390fd5b612c36816003546131cb90919063ffffffff16565b600381905550612c8e81600160008573ffffffffffffffffffffffffffffffffffffffff1673ffffffffffffffffffffffffffffffffffffffff168152602001908152602001600020546131cb90919063ffffffff16565b600160008473ffffffffffffffffffffffffffffffffffffffff1673ffffffffffffffffffffffffffffffffffffffff168152602001908152602001600020819055508173ffffffffffffffffffffffffffffffffffffffff16600073ffffffffffffffffffffffffffffffffffffffff167fddf252ad1be2c89b69c2b068fc378daa952ba7f163c4a11628f55a4df523b3ef836040518082815260200191505060405180910390a35050565b60008083118015612d4c5750600082115b612dbe576040517f08c379a00000000000000000000000000000000000000000000000000000000081526004018080602001828103825260108152602001807f696e76616c69642072657365727665730000000000000000000000000000000081525060200191505060405180910390fd5b60006063850290506000838202905060008260648702019050808281612de057fe5b0493505050509392505050565b600073ffffffffffffffffffffffffffffffffffffffff168273ffffffffffffffffffffffffffffffffffffffff161415612e90576040517f08c379a00000000000000000000000000000000000000000000000000000000081526004018080602001828103825260208152602001807f4b4950373a206275726e2066726f6d20746865207a65726f206164647265737381525060200191505060405180910390fd5b612ea58160035461298390919063ffffffff16565b600381905550612efd81600160008573ffffffffffffffffffffffffffffffffffffffff1673ffffffffffffffffffffffffffffffffffffffff1681526020019081526020016000205461298390919063ffffffff16565b600160008473ffffffffffffffffffffffffffffffffffffffff1673ffffffffffffffffffffffffffffffffffffffff16815260200190815260200160002081905550600073ffffffffffffffffffffffffffffffffffffffff168273ffffffffffffffffffffffffffffffffffffffff167fddf252ad1be2c89b69c2b068fc378daa952ba7f163c4a11628f55a4df523b3ef836040518082815260200191505060405180910390a35050565b6000612fcb8473ffffffffffffffffffffffffffffffffffffffff16613313565b612fd857600190506131c3565b60008473ffffffffffffffffffffffffffffffffffffffff16639d188c22338887876040518563ffffffff167c0100000000000000000000000000000000000000000000000000000000028152600401808573ffffffffffffffffffffffffffffffffffffffff1673ffffffffffffffffffffffffffffffffffffffff1681526020018473ffffffffffffffffffffffffffffffffffffffff1673ffffffffffffffffffffffffffffffffffffffff16815260200183815260200180602001828103825283818151815260200191508051906020019080838360005b838110156130cf5780820151818401526020810190506130b4565b50505050905090810190601f1680156130fc5780820380516001836020036101000a031916815260200191505b5095505050505050602060405180830381600087803b15801561311e57600080fd5b505af1158015613132573d6000803e3d6000fd5b505050506040513d602081101561314857600080fd5b81019080805190602001909291905050509050639d188c227c0100000000000000000000000000000000000000000000000000000000027bffffffffffffffffffffffffffffffffffffffffffffffffffffffff1916817bffffffffffffffffffffffffffffffffffffffffffffffffffffffff1916149150505b949350505050565b600080828401905083811015613249576040517f08c379a000000000000000000000000000000000000000000000000000000000815260040180806020018281038252601b8152602001807f536166654d6174683a206164646974696f6e206f766572666c6f77000000000081525060200191505060405180910390fd5b8091505092915050565b6000838311158290613300576040517f08c379a00000000000000000000000000000000000000000000000000000000081526004018080602001828103825283818151815260200191508051906020019080838360005b838110156132c55780820151818401526020810190506132aa565b50505050905090810190601f1680156132f25780820380516001836020036101000a031916815260200191505b509250505060405180910390fd5b5060008385039050809150509392505050565b600080823b90506000811191505091905056fe4b4950373a20617070726f766520746f20746865207a65726f20616464726573734b4950373a207472616e7366657220746f206e6f6e204b495037526563656976657220696d706c656d656e7465724b4950373a207472616e7366657220746f20746865207a65726f206164647265737345786368616e6765206765744164647228696e646578293a20657863656564656420696e6465784b4950373a207472616e736665722066726f6d20746865207a65726f206164647265737345786368616e67652067657441646472416e6442616c616e636528696e646578293a20657863656564656420696e6465784b4950373a20617070726f76652066726f6d20746865207a65726f2061646472657373a165627a7a7230582069937a5ddfc9e22f8a84ff1617295ccd3d841d465a9ceeadc8ab58875f49a80c0029",
  "source": "// SPDX-License-Identifier: GPL-3.0\r\n\r\npragma solidity ^0.5.6;\r\n\r\nimport \"./KIP7.sol\";\r\nimport \"./IFactory.sol\";\r\n\r\n\r\ninterface IExchange {\r\n    function ethToTokenSwap(uint256 _minTokens) external payable;\r\n\r\n    function ethToTokenTransfer(uint256 _minTokens, address _recipient)\r\n        external\r\n        payable;\r\n}\r\n\r\n// interface IFactory {\r\n//     function getExchange(address _tokenAddress) external returns (address);\r\n// }\r\n\r\n// uniswap v1 only KIP-7 to Klaytn\r\ncontract Exchange is KIP7 {\r\n    address public tokenAddress;\r\n    address public factoryAddress;\r\n\r\n    // address list \r\n    mapping (address => bool) private _isAddrExist;\r\n    mapping (uint256 => address) private _addrList;\r\n    uint256 private _addrCount = 0;\r\n\r\n    constructor(address _token) KIP7() public {\r\n        require(_token != address(0), \"invalid token address\");\r\n\r\n        tokenAddress = _token;\r\n        factoryAddress = msg.sender;\r\n    }\r\n\r\n    // address     LP   address \r\n    modifier checkAddr {\r\n        if (_isAddrExist[msg.sender]) {\r\n            _;\r\n        } else {\r\n            _addrList[_addrCount] = msg.sender;\r\n            _addrCount++;\r\n            //    \r\n            _isAddrExist[msg.sender] = true;\r\n            _;\r\n        }\r\n    }\r\n\r\n    //   addr \r\n    function getAddrCount() public view returns (uint256) {\r\n        return _addrCount;\r\n    }\r\n\r\n    //  index address\r\n    function getAddr(uint256 index) public view returns (address) {\r\n        require (index < _addrCount, \"Exchange getAddr(index): exceeded index\");\r\n        return _addrList[index];\r\n    }\r\n\r\n    // index   balance\r\n    function getIndexBalance(uint256 index) public view returns (uint256) {\r\n        require (index < _addrCount, \"Exchange getAddrAndBalance(index): exceeded index\");\r\n        return balanceOf(_addrList[index]);\r\n    }\r\n\r\n    // checkAddr modifier \r\n    function addLiquidity(uint256 _tokenAmount) checkAddr\r\n        public\r\n        payable\r\n        returns (uint256)\r\n    {\r\n        if (getReserve() == 0) {\r\n            KIP7 token = KIP7(tokenAddress);\r\n            token.transferFrom(msg.sender, address(this), _tokenAmount);\r\n\r\n            uint256 liquidity = address(this).balance;\r\n            _mint(msg.sender, liquidity);\r\n\r\n            return liquidity;\r\n        } else {\r\n            uint256 ethReserve = address(this).balance - msg.value;\r\n            uint256 tokenReserve = getReserve();\r\n            uint256 tokenAmount = (msg.value * tokenReserve) / ethReserve;\r\n            require(_tokenAmount >= tokenAmount, \"insufficient token amount\");\r\n\r\n            KIP7 token = KIP7(tokenAddress);\r\n            token.transferFrom(msg.sender, address(this), tokenAmount);\r\n\r\n            uint256 liquidity = (msg.value * totalSupply()) / ethReserve;\r\n            _mint(msg.sender, liquidity);\r\n\r\n            return liquidity;\r\n        }\r\n    }\r\n\r\n    function removeLiquidity(uint256 _amount)\r\n        public\r\n        returns (uint256, uint256)\r\n    {\r\n        require(_amount > 0, \"invalid amount\");\r\n\r\n        uint256 ethAmount = (address(this).balance * _amount) / totalSupply();\r\n        uint256 tokenAmount = (getReserve() * _amount) / totalSupply();\r\n\r\n        _burn(msg.sender, _amount);\r\n        (msg.sender).transfer(ethAmount);\r\n        KIP7(tokenAddress).transfer(msg.sender, tokenAmount);\r\n\r\n        return (ethAmount, tokenAmount);\r\n    }\r\n\r\n    function getReserve() public view returns (uint256) {\r\n        return KIP7(tokenAddress).balanceOf(address(this));\r\n    }\r\n\r\n    function getTokenAmount(uint256 _ethSold) public view returns (uint256) {\r\n        require(_ethSold > 0, \"ethSold is too small\");\r\n\r\n        uint256 tokenReserve = getReserve();\r\n\r\n        return getAmount(_ethSold, address(this).balance, tokenReserve);\r\n    }\r\n\r\n    function getEthAmount(uint256 _tokenSold) public view returns (uint256) {\r\n        require(_tokenSold > 0, \"tokenSold is too small\");\r\n\r\n        uint256 tokenReserve = getReserve();\r\n\r\n        return getAmount(_tokenSold, tokenReserve, address(this).balance);\r\n    }\r\n\r\n    function ethToToken(uint256 _minTokens, address recipient) private {\r\n        uint256 tokenReserve = getReserve();\r\n        uint256 tokensBought = getAmount(\r\n            msg.value,\r\n            address(this).balance - msg.value,\r\n            tokenReserve\r\n        );\r\n\r\n        require(tokensBought >= _minTokens, \"insufficient output amount\");\r\n\r\n        IKIP7(tokenAddress).transfer(recipient, tokensBought);\r\n    }\r\n\r\n    function ethToTokenTransfer(uint256 _minTokens, address _recipient)\r\n        public\r\n        payable\r\n    {\r\n        ethToToken(_minTokens, _recipient);\r\n    }\r\n\r\n    function ethToTokenSwap(uint256 _minTokens) public payable {\r\n        ethToToken(_minTokens, msg.sender);\r\n    }\r\n\r\n    function tokenToEthSwap(uint256 _tokensSold, uint256 _minEth) public {\r\n        uint256 tokenReserve = getReserve();\r\n        uint256 ethBought = getAmount(\r\n            _tokensSold,\r\n            tokenReserve,\r\n            address(this).balance\r\n        );\r\n\r\n        require(ethBought >= _minEth, \"insufficient output amount\");\r\n\r\n        IKIP7(tokenAddress).transferFrom(\r\n            msg.sender,\r\n            address(this),\r\n            _tokensSold\r\n        );\r\n        (msg.sender).transfer(ethBought);\r\n    }\r\n\r\n    function tokenToTokenSwap(\r\n        uint256 _tokensSold,\r\n        uint256 _minTokensBought,\r\n        address _tokenAddress\r\n    ) public {\r\n        address exchangeAddress = IFactory(factoryAddress).getExchange(\r\n            _tokenAddress\r\n        );\r\n        require(\r\n            exchangeAddress != address(this) && exchangeAddress != address(0),\r\n            \"invalid exchange address\"\r\n        );\r\n\r\n        uint256 tokenReserve = getReserve();\r\n        uint256 ethBought = getAmount(\r\n            _tokensSold,\r\n            tokenReserve,\r\n            address(this).balance\r\n        );\r\n\r\n        IKIP7(tokenAddress).transferFrom(\r\n            msg.sender,\r\n            address(this),\r\n            _tokensSold\r\n        );\r\n\r\n        IExchange(exchangeAddress).ethToTokenTransfer.value(ethBought)(\r\n            _minTokensBought,\r\n            msg.sender\r\n        );\r\n    }\r\n\r\n    function getAmount(\r\n        uint256 inputAmount,\r\n        uint256 inputReserve,\r\n        uint256 outputReserve\r\n    ) private pure returns (uint256) {\r\n        require(inputReserve > 0 && outputReserve > 0, \"invalid reserves\");\r\n\r\n        uint256 inputAmountWithFee = inputAmount * 99;\r\n        uint256 numerator = inputAmountWithFee * outputReserve;\r\n        uint256 denominator = (inputReserve * 100) + inputAmountWithFee;\r\n\r\n        return numerator / denominator;\r\n    }\r\n\r\n    // LP      0\r\n    //    \r\n    // LPT ) klay pool * token pool / totalLPtoken^2\r\n    function getLiquidityPerToken () public view returns (uint256) {\r\n        uint256 numerator = address(this).balance * KIP7(tokenAddress).balanceOf(address(this)) * 1000000; // 1000000   \r\n\r\n        // LP  \r\n        uint256 denominator = totalSupply() * totalSupply();\r\n        if (numerator != 0) {\r\n            return numerator / denominator;\r\n        } else {\r\n            return 0;\r\n        }\r\n    }\r\n}",
  "sourcePath": "D:\\codestates\\section5\\project3\\beb-03-Kameleon\\contract\\contracts\\Exchange.sol",
  "compiler": {
    "name": "solc",
    "version": "0.5.6+commit.b259423e.Emscripten.clang"
  },
  "schemaVersion": "3.4.7",
  "updatedAt": "2022-05-16T05:10:09.168Z",
  "devdoc": {
    "methods": {
      "allowance(address,address)": {
        "details": "See `IKIP7.allowance`.\r"
      },
      "approve(address,uint256)": {
        "details": "See `IKIP7.approve`.\r      * Requirements:\r      * - `spender` cannot be the zero address.\r"
      },
      "balanceOf(address)": {
        "details": "See `IKIP7.balanceOf`.\r"
      },
      "safeTransfer(address,uint256)": {
        "details": "Moves `amount` tokens from the caller's account to `recipient`.\r"
      },
      "safeTransfer(address,uint256,bytes)": {
        "details": "Moves `amount` tokens from the caller's account to `recipient`.\r"
      },
      "safeTransferFrom(address,address,uint256)": {
        "details": "Moves `amount` tokens from `sender` to `recipient` using the allowance mechanism.\r `amount` is then deducted from the caller's allowance.\r"
      },
      "safeTransferFrom(address,address,uint256,bytes)": {
        "details": "Moves `amount` tokens from `sender` to `recipient` using the allowance mechanism.\r `amount` is then deducted from the caller's allowance.\r"
      },
      "supportsInterface(bytes4)": {
        "details": "See `IKIP13.supportsInterface`.\r      * Time complexity O(1), guaranteed to always use less than 30 000 gas.\r"
      },
      "totalSupply()": {
        "details": "See `IKIP7.totalSupply`.\r"
      },
      "transfer(address,uint256)": {
        "details": "See `IKIP7.transfer`.\r      * Requirements:\r      * - `recipient` cannot be the zero address.\r - the caller must have a balance of at least `amount`.\r"
      },
      "transferFrom(address,address,uint256)": {
        "details": "See `IKIP7.transferFrom`.\r      * Emits an `Approval` event indicating the updated allowance. This is not\r required by the KIP. See the note at the beginning of `KIP7`;\r      * Requirements:\r - `sender` and `recipient` cannot be the zero address.\r - `sender` must have a balance of at least `value`.\r - the caller must have allowance for `sender`'s tokens of at least\r `amount`.\r"
      }
    }
  },
  "userdoc": {
    "methods": {}
  }
}