{
  "contractName": "Kameleon",
  "abi": [
    {
      "constant": true,
      "inputs": [
        {
          "name": "interfaceId",
          "type": "bytes4"
        }
      ],
      "name": "supportsInterface",
      "outputs": [
        {
          "name": "",
          "type": "bool"
        }
      ],
      "payable": false,
      "stateMutability": "view",
      "type": "function"
    },
    {
      "constant": false,
      "inputs": [
        {
          "name": "spender",
          "type": "address"
        },
        {
          "name": "value",
          "type": "uint256"
        }
      ],
      "name": "approve",
      "outputs": [
        {
          "name": "",
          "type": "bool"
        }
      ],
      "payable": false,
      "stateMutability": "nonpayable",
      "type": "function"
    },
    {
      "constant": true,
      "inputs": [],
      "name": "totalSupply",
      "outputs": [
        {
          "name": "",
          "type": "uint256"
        }
      ],
      "payable": false,
      "stateMutability": "view",
      "type": "function"
    },
    {
      "constant": false,
      "inputs": [
        {
          "name": "sender",
          "type": "address"
        },
        {
          "name": "recipient",
          "type": "address"
        },
        {
          "name": "amount",
          "type": "uint256"
        }
      ],
      "name": "transferFrom",
      "outputs": [
        {
          "name": "",
          "type": "bool"
        }
      ],
      "payable": false,
      "stateMutability": "nonpayable",
      "type": "function"
    },
    {
      "constant": false,
      "inputs": [
        {
          "name": "recipient",
          "type": "address"
        },
        {
          "name": "amount",
          "type": "uint256"
        }
      ],
      "name": "safeTransfer",
      "outputs": [],
      "payable": false,
      "stateMutability": "nonpayable",
      "type": "function"
    },
    {
      "constant": false,
      "inputs": [
        {
          "name": "sender",
          "type": "address"
        },
        {
          "name": "recipient",
          "type": "address"
        },
        {
          "name": "amount",
          "type": "uint256"
        }
      ],
      "name": "safeTransferFrom",
      "outputs": [],
      "payable": false,
      "stateMutability": "nonpayable",
      "type": "function"
    },
    {
      "constant": true,
      "inputs": [
        {
          "name": "account",
          "type": "address"
        }
      ],
      "name": "balanceOf",
      "outputs": [
        {
          "name": "",
          "type": "uint256"
        }
      ],
      "payable": false,
      "stateMutability": "view",
      "type": "function"
    },
    {
      "constant": false,
      "inputs": [],
      "name": "renounceOwnership",
      "outputs": [],
      "payable": false,
      "stateMutability": "nonpayable",
      "type": "function"
    },
    {
      "constant": true,
      "inputs": [],
      "name": "owner",
      "outputs": [
        {
          "name": "",
          "type": "address"
        }
      ],
      "payable": false,
      "stateMutability": "view",
      "type": "function"
    },
    {
      "constant": false,
      "inputs": [
        {
          "name": "recipient",
          "type": "address"
        },
        {
          "name": "amount",
          "type": "uint256"
        }
      ],
      "name": "transfer",
      "outputs": [
        {
          "name": "",
          "type": "bool"
        }
      ],
      "payable": false,
      "stateMutability": "nonpayable",
      "type": "function"
    },
    {
      "constant": false,
      "inputs": [
        {
          "name": "sender",
          "type": "address"
        },
        {
          "name": "recipient",
          "type": "address"
        },
        {
          "name": "amount",
          "type": "uint256"
        },
        {
          "name": "data",
          "type": "bytes"
        }
      ],
      "name": "safeTransferFrom",
      "outputs": [],
      "payable": false,
      "stateMutability": "nonpayable",
      "type": "function"
    },
    {
      "constant": true,
      "inputs": [
        {
          "name": "owner",
          "type": "address"
        },
        {
          "name": "spender",
          "type": "address"
        }
      ],
      "name": "allowance",
      "outputs": [
        {
          "name": "",
          "type": "uint256"
        }
      ],
      "payable": false,
      "stateMutability": "view",
      "type": "function"
    },
    {
      "constant": false,
      "inputs": [
        {
          "name": "recipient",
          "type": "address"
        },
        {
          "name": "amount",
          "type": "uint256"
        },
        {
          "name": "data",
          "type": "bytes"
        }
      ],
      "name": "safeTransfer",
      "outputs": [],
      "payable": false,
      "stateMutability": "nonpayable",
      "type": "function"
    },
    {
      "constant": false,
      "inputs": [
        {
          "name": "newOwner",
          "type": "address"
        }
      ],
      "name": "transferOwnership",
      "outputs": [],
      "payable": false,
      "stateMutability": "nonpayable",
      "type": "function"
    },
    {
      "inputs": [
        {
          "name": "factoryAddress",
          "type": "address"
        }
      ],
      "payable": false,
      "stateMutability": "nonpayable",
      "type": "constructor"
    },
    {
      "anonymous": false,
      "inputs": [
        {
          "indexed": true,
          "name": "previousOwner",
          "type": "address"
        },
        {
          "indexed": true,
          "name": "newOwner",
          "type": "address"
        }
      ],
      "name": "OwnershipTransferred",
      "type": "event"
    },
    {
      "anonymous": false,
      "inputs": [
        {
          "indexed": true,
          "name": "from",
          "type": "address"
        },
        {
          "indexed": true,
          "name": "to",
          "type": "address"
        },
        {
          "indexed": false,
          "name": "value",
          "type": "uint256"
        }
      ],
      "name": "Transfer",
      "type": "event"
    },
    {
      "anonymous": false,
      "inputs": [
        {
          "indexed": true,
          "name": "owner",
          "type": "address"
        },
        {
          "indexed": true,
          "name": "spender",
          "type": "address"
        },
        {
          "indexed": false,
          "name": "value",
          "type": "uint256"
        }
      ],
      "name": "Approval",
      "type": "event"
    },
    {
      "constant": true,
      "inputs": [],
      "name": "name",
      "outputs": [
        {
          "name": "",
          "type": "string"
        }
      ],
      "payable": false,
      "stateMutability": "view",
      "type": "function"
    },
    {
      "constant": true,
      "inputs": [],
      "name": "symbol",
      "outputs": [
        {
          "name": "",
          "type": "string"
        }
      ],
      "payable": false,
      "stateMutability": "view",
      "type": "function"
    },
    {
      "constant": true,
      "inputs": [],
      "name": "decimals",
      "outputs": [
        {
          "name": "",
          "type": "uint8"
        }
      ],
      "payable": false,
      "stateMutability": "pure",
      "type": "function"
    },
    {
      "constant": false,
      "inputs": [
        {
          "name": "factoryAddress",
          "type": "address"
        }
      ],
      "name": "setFactoryAddress",
      "outputs": [],
      "payable": false,
      "stateMutability": "nonpayable",
      "type": "function"
    },
    {
      "constant": false,
      "inputs": [
        {
          "name": "governAddress",
          "type": "address"
        }
      ],
      "name": "setGovernAddress",
      "outputs": [],
      "payable": false,
      "stateMutability": "nonpayable",
      "type": "function"
    },
    {
      "constant": false,
      "inputs": [
        {
          "name": "from",
          "type": "address"
        },
        {
          "name": "to",
          "type": "address"
        },
        {
          "name": "amount",
          "type": "uint256"
        }
      ],
      "name": "governTransfer",
      "outputs": [],
      "payable": false,
      "stateMutability": "nonpayable",
      "type": "function"
    },
    {
      "constant": true,
      "inputs": [
        {
          "name": "addr",
          "type": "address"
        }
      ],
      "name": "getLastLPT",
      "outputs": [
        {
          "name": "",
          "type": "uint256"
        }
      ],
      "payable": false,
      "stateMutability": "view",
      "type": "function"
    },
    {
      "constant": true,
      "inputs": [
        {
          "name": "addr",
          "type": "address"
        }
      ],
      "name": "getCurrentLPT",
      "outputs": [
        {
          "name": "",
          "type": "uint256"
        }
      ],
      "payable": false,
      "stateMutability": "view",
      "type": "function"
    },
    {
      "constant": true,
      "inputs": [
        {
          "name": "addr",
          "type": "address"
        }
      ],
      "name": "getIncreasedLPT",
      "outputs": [
        {
          "name": "",
          "type": "uint256"
        }
      ],
      "payable": false,
      "stateMutability": "view",
      "type": "function"
    },
    {
      "constant": false,
      "inputs": [
        {
          "name": "_tokenAddress",
          "type": "address"
        }
      ],
      "name": "createExchange",
      "outputs": [
        {
          "name": "",
          "type": "address"
        }
      ],
      "payable": false,
      "stateMutability": "nonpayable",
      "type": "function"
    },
    {
      "constant": false,
      "inputs": [],
      "name": "mintToLPs",
      "outputs": [
        {
          "name": "",
          "type": "uint8"
        }
      ],
      "payable": false,
      "stateMutability": "nonpayable",
      "type": "function"
    },
    {
      "constant": false,
      "inputs": [
        {
          "name": "amount",
          "type": "uint256"
        }
      ],
      "name": "changeTotalMintAmountPerDay",
      "outputs": [],
      "payable": false,
      "stateMutability": "nonpayable",
      "type": "function"
    }
  ],
  "bytecode": "0x608060405269010f0cf064dd592000006009553480156200001f57600080fd5b5060405160208062003625833981018060405260208110156200004157600080fd5b81019080805190602001909291905050506200008f6301ffc9a77c01000000000000000000000000000000000000000000000000000000000262000205640100000000026401000000009004565b620000cc63657873717c01000000000000000000000000000000000000000000000000000000000262000205640100000000026401000000009004565b620000e6336200032a640100000000026401000000009004565b600073ffffffffffffffffffffffffffffffffffffffff168173ffffffffffffffffffffffffffffffffffffffff1614156200012157600080fd5b80600860006101000a81548173ffffffffffffffffffffffffffffffffffffffff021916908373ffffffffffffffffffffffffffffffffffffffff1602179055506040518060400160405280600881526020017f4b616d656c656f6e00000000000000000000000000000000000000000000000081525060059080519060200190620001af929190620003f0565b506040518060400160405280600381526020017f4b4c54000000000000000000000000000000000000000000000000000000000081525060069080519060200190620001fd929190620003f0565b50506200049f565b63ffffffff7c010000000000000000000000000000000000000000000000000000000002817bffffffffffffffffffffffffffffffffffffffffffffffffffffffff19161415620002be576040517f08c379a000000000000000000000000000000000000000000000000000000000815260040180806020018281038252601b8152602001807f4b495031333a20696e76616c696420696e74657266616365206964000000000081525060200191505060405180910390fd5b6001600080837bffffffffffffffffffffffffffffffffffffffffffffffffffffffff19167bffffffffffffffffffffffffffffffffffffffffffffffffffffffff1916815260200190815260200160002060006101000a81548160ff02191690831515021790555050565b6000600460009054906101000a900473ffffffffffffffffffffffffffffffffffffffff16905081600460006101000a81548173ffffffffffffffffffffffffffffffffffffffff021916908373ffffffffffffffffffffffffffffffffffffffff1602179055508173ffffffffffffffffffffffffffffffffffffffff168173ffffffffffffffffffffffffffffffffffffffff167f8be0079c531659141344cd1fd0a4f28419497f9722a3daafe3b4186f6b6457e060405160405180910390a35050565b828054600181600116156101000203166002900490600052602060002090601f016020900481019282601f106200043357805160ff191683800117855562000464565b8280016001018555821562000464579182015b828111156200046357825182559160200191906001019062000446565b5b50905062000473919062000477565b5090565b6200049c91905b80821115620004985760008160009055506001016200047e565b5090565b90565b61317680620004af6000396000f3fe608060405234801561001057600080fd5b50600436106101ab576000357c01000000000000000000000000000000000000000000000000000000009004806377949dc5116100fb578063a9059cbb116100b4578063d1409dfe1161008e578063d1409dfe146109cc578063dd62ed3e146109f0578063eb79554914610a68578063f2fde38b14610b4d576101ab565b8063a9059cbb14610809578063ac5b045c1461086f578063b88d4fde146108c7576101ab565b806377949dc51461060457806383c17c55146106325780638d68310f146106765780638da5cb5b146106ce57806395d89b41146107185780639acb25411461079b576101ab565b806323b872dd11610168578063423f6cef11610142578063423f6cef146104e657806342842e0e1461053457806370a08231146105a2578063715018a6146105fa576101ab565b806323b872dd146103f8578063313ce5671461047e578063370f0ce2146104a2576101ab565b806301ffc9a7146101b057806306fdde0314610215578063095ea7b3146102985780631648f38e146102fe57806318160ddd146103825780631b625cbc146103a0575b600080fd5b6101fb600480360360208110156101c657600080fd5b8101908080357bffffffffffffffffffffffffffffffffffffffffffffffffffffffff19169060200190929190505050610b91565b604051808215151515815260200191505060405180910390f35b61021d610bf8565b6040518080602001828103825283818151815260200191508051906020019080838360005b8381101561025d578082015181840152602081019050610242565b50505050905090810190601f16801561028a5780820380516001836020036101000a031916815260200191505b509250505060405180910390f35b6102e4600480360360408110156102ae57600080fd5b81019080803573ffffffffffffffffffffffffffffffffffffffff16906020019092919080359060200190929190505050610c9a565b604051808215151515815260200191505060405180910390f35b6103406004803603602081101561031457600080fd5b81019080803573ffffffffffffffffffffffffffffffffffffffff169060200190929190505050610cb1565b604051808273ffffffffffffffffffffffffffffffffffffffff1673ffffffffffffffffffffffffffffffffffffffff16815260200191505060405180910390f35b61038a610ea5565b6040518082815260200191505060405180910390f35b6103e2600480360360208110156103b657600080fd5b81019080803573ffffffffffffffffffffffffffffffffffffffff169060200190929190505050610eaf565b6040518082815260200191505060405180910390f35b6104646004803603606081101561040e57600080fd5b81019080803573ffffffffffffffffffffffffffffffffffffffff169060200190929190803573ffffffffffffffffffffffffffffffffffffffff16906020019092919080359060200190929190505050610ef8565b604051808215151515815260200191505060405180910390f35b610486610fa9565b604051808260ff1660ff16815260200191505060405180910390f35b6104e4600480360360208110156104b857600080fd5b81019080803573ffffffffffffffffffffffffffffffffffffffff169060200190929190505050610fb2565b005b610532600480360360408110156104fc57600080fd5b81019080803573ffffffffffffffffffffffffffffffffffffffff169060200190929190803590602001909291905050506110d8565b005b6105a06004803603606081101561054a57600080fd5b81019080803573ffffffffffffffffffffffffffffffffffffffff169060200190929190803573ffffffffffffffffffffffffffffffffffffffff169060200190929190803590602001909291905050506110f6565b005b6105e4600480360360208110156105b857600080fd5b81019080803573ffffffffffffffffffffffffffffffffffffffff169060200190929190505050611116565b6040518082815260200191505060405180910390f35b61060261115f565b005b6106306004803603602081101561061a57600080fd5b8101908080359060200190929190505050611213565b005b6106746004803603602081101561064857600080fd5b81019080803573ffffffffffffffffffffffffffffffffffffffff1690602001909291905050506112c5565b005b6106b86004803603602081101561068c57600080fd5b81019080803573ffffffffffffffffffffffffffffffffffffffff1690602001909291905050506113eb565b6040518082815260200191505060405180910390f35b6106d6611434565b604051808273ffffffffffffffffffffffffffffffffffffffff1673ffffffffffffffffffffffffffffffffffffffff16815260200191505060405180910390f35b61072061145e565b6040518080602001828103825283818151815260200191508051906020019080838360005b83811015610760578082015181840152602081019050610745565b50505050905090810190601f16801561078d5780820380516001836020036101000a031916815260200191505b509250505060405180910390f35b610807600480360360608110156107b157600080fd5b81019080803573ffffffffffffffffffffffffffffffffffffffff169060200190929190803573ffffffffffffffffffffffffffffffffffffffff16906020019092919080359060200190929190505050611500565b005b6108556004803603604081101561081f57600080fd5b81019080803573ffffffffffffffffffffffffffffffffffffffff169060200190929190803590602001909291905050506115b6565b604051808215151515815260200191505060405180910390f35b6108b16004803603602081101561088557600080fd5b81019080803573ffffffffffffffffffffffffffffffffffffffff1690602001909291905050506115cd565b6040518082815260200191505060405180910390f35b6109ca600480360360808110156108dd57600080fd5b81019080803573ffffffffffffffffffffffffffffffffffffffff169060200190929190803573ffffffffffffffffffffffffffffffffffffffff169060200190929190803590602001909291908035906020019064010000000081111561094457600080fd5b82018360208201111561095657600080fd5b8035906020019184600183028401116401000000008311171561097857600080fd5b91908080601f016020809104026020016040519081016040528093929190818152602001838380828437600081840152601f19601f820116905080830192505050505050509192919290505050611616565b005b6109d4611689565b604051808260ff1660ff16815260200191505060405180910390f35b610a5260048036036040811015610a0657600080fd5b81019080803573ffffffffffffffffffffffffffffffffffffffff169060200190929190803573ffffffffffffffffffffffffffffffffffffffff169060200190929190505050611fc8565b6040518082815260200191505060405180910390f35b610b4b60048036036060811015610a7e57600080fd5b81019080803573ffffffffffffffffffffffffffffffffffffffff1690602001909291908035906020019092919080359060200190640100000000811115610ac557600080fd5b820183602082011115610ad757600080fd5b80359060200191846001830284011164010000000083111715610af957600080fd5b91908080601f016020809104026020016040519081016040528093929190818152602001838380828437600081840152601f19601f82011690508083019250505050505050919291929050505061204f565b005b610b8f60048036036020811015610b6357600080fd5b81019080803573ffffffffffffffffffffffffffffffffffffffff1690602001909291905050506120c0565b005b6000806000837bffffffffffffffffffffffffffffffffffffffffffffffffffffffff19167bffffffffffffffffffffffffffffffffffffffffffffffffffffffff1916815260200190815260200160002060009054906101000a900460ff169050919050565b606060058054600181600116156101000203166002900480601f016020809104026020016040519081016040528092919081815260200182805460018160011615610100020316600290048015610c905780601f10610c6557610100808354040283529160200191610c90565b820191906000526020600020905b815481529060010190602001808311610c7357829003601f168201915b5050505050905090565b6000610ca73384846121fa565b6001905092915050565b60003373ffffffffffffffffffffffffffffffffffffffff16610cd2611434565b73ffffffffffffffffffffffffffffffffffffffff1614610d5b576040517f08c379a00000000000000000000000000000000000000000000000000000000081526004018080602001828103825260208152602001807f4f776e61626c653a2063616c6c6572206973206e6f7420746865206f776e657281525060200191505060405180910390fd5b6000600860009054906101000a900473ffffffffffffffffffffffffffffffffffffffff1673ffffffffffffffffffffffffffffffffffffffff16631648f38e846040518263ffffffff167c0100000000000000000000000000000000000000000000000000000000028152600401808273ffffffffffffffffffffffffffffffffffffffff1673ffffffffffffffffffffffffffffffffffffffff168152602001915050602060405180830381600087803b158015610e1a57600080fd5b505af1158015610e2e573d6000803e3d6000fd5b505050506040513d6020811015610e4457600080fd5b810190808051906020019092919050505090506000600a60008373ffffffffffffffffffffffffffffffffffffffff1673ffffffffffffffffffffffffffffffffffffffff1681526020019081526020016000208190555080915050919050565b6000600354905090565b6000600c60008373ffffffffffffffffffffffffffffffffffffffff1673ffffffffffffffffffffffffffffffffffffffff168152602001908152602001600020549050919050565b6000610f058484846123f1565b610f9e8433610f9985600260008a73ffffffffffffffffffffffffffffffffffffffff1673ffffffffffffffffffffffffffffffffffffffff16815260200190815260200160002060003373ffffffffffffffffffffffffffffffffffffffff1673ffffffffffffffffffffffffffffffffffffffff1681526020019081526020016000205461269190919063ffffffff16565b6121fa565b600190509392505050565b60006012905090565b3373ffffffffffffffffffffffffffffffffffffffff16610fd1611434565b73ffffffffffffffffffffffffffffffffffffffff161461105a576040517f08c379a00000000000000000000000000000000000000000000000000000000081526004018080602001828103825260208152602001807f4f776e61626c653a2063616c6c6572206973206e6f7420746865206f776e657281525060200191505060405180910390fd5b600073ffffffffffffffffffffffffffffffffffffffff168173ffffffffffffffffffffffffffffffffffffffff16141561109457600080fd5b80600760006101000a81548173ffffffffffffffffffffffffffffffffffffffff021916908373ffffffffffffffffffffffffffffffffffffffff16021790555050565b6110f282826040518060200160405280600081525061204f565b5050565b61111183838360405180602001604052806000815250611616565b505050565b6000600160008373ffffffffffffffffffffffffffffffffffffffff1673ffffffffffffffffffffffffffffffffffffffff168152602001908152602001600020549050919050565b3373ffffffffffffffffffffffffffffffffffffffff1661117e611434565b73ffffffffffffffffffffffffffffffffffffffff1614611207576040517f08c379a00000000000000000000000000000000000000000000000000000000081526004018080602001828103825260208152602001807f4f776e61626c653a2063616c6c6572206973206e6f7420746865206f776e657281525060200191505060405180910390fd5b61121160006126db565b565b3373ffffffffffffffffffffffffffffffffffffffff16611232611434565b73ffffffffffffffffffffffffffffffffffffffff16146112bb576040517f08c379a00000000000000000000000000000000000000000000000000000000081526004018080602001828103825260208152602001807f4f776e61626c653a2063616c6c6572206973206e6f7420746865206f776e657281525060200191505060405180910390fd5b8060098190555050565b3373ffffffffffffffffffffffffffffffffffffffff166112e4611434565b73ffffffffffffffffffffffffffffffffffffffff161461136d576040517f08c379a00000000000000000000000000000000000000000000000000000000081526004018080602001828103825260208152602001807f4f776e61626c653a2063616c6c6572206973206e6f7420746865206f776e657281525060200191505060405180910390fd5b600073ffffffffffffffffffffffffffffffffffffffff168173ffffffffffffffffffffffffffffffffffffffff1614156113a757600080fd5b80600860006101000a81548173ffffffffffffffffffffffffffffffffffffffff021916908373ffffffffffffffffffffffffffffffffffffffff16021790555050565b6000600b60008373ffffffffffffffffffffffffffffffffffffffff1673ffffffffffffffffffffffffffffffffffffffff168152602001908152602001600020549050919050565b6000600460009054906101000a900473ffffffffffffffffffffffffffffffffffffffff16905090565b606060068054600181600116156101000203166002900480601f0160208091040260200160405190810160405280929190818152602001828054600181600116156101000203166002900480156114f65780601f106114cb576101008083540402835291602001916114f6565b820191906000526020600020905b8154815290600101906020018083116114d957829003601f168201915b5050505050905090565b3373ffffffffffffffffffffffffffffffffffffffff16600760009054906101000a900473ffffffffffffffffffffffffffffffffffffffff1673ffffffffffffffffffffffffffffffffffffffff16146115a6576040517f08c379a00000000000000000000000000000000000000000000000000000000081526004018080602001828103825260218152602001806130c16021913960400191505060405180910390fd5b6115b18383836123f1565b505050565b60006115c33384846123f1565b6001905092915050565b6000600a60008373ffffffffffffffffffffffffffffffffffffffff1673ffffffffffffffffffffffffffffffffffffffff168152602001908152602001600020549050919050565b611621848484610ef8565b5061162e848484846127a1565b611683576040517f08c379a000000000000000000000000000000000000000000000000000000000815260040180806020018281038252602e81526020018061306d602e913960400191505060405180910390fd5b50505050565b60003373ffffffffffffffffffffffffffffffffffffffff166116aa611434565b73ffffffffffffffffffffffffffffffffffffffff1614611733576040517f08c379a00000000000000000000000000000000000000000000000000000000081526004018080602001828103825260208152602001807f4f776e61626c653a2063616c6c6572206973206e6f7420746865206f776e657281525060200191505060405180910390fd5b6000600860009054906101000a900473ffffffffffffffffffffffffffffffffffffffff1673ffffffffffffffffffffffffffffffffffffffff16634c4523a66040518163ffffffff167c010000000000000000000000000000000000000000000000000000000002815260040160206040518083038186803b1580156117b957600080fd5b505afa1580156117cd573d6000803e3d6000fd5b505050506040513d60208110156117e357600080fd5b810190808051906020019092919050505011611867576040517f08c379a000000000000000000000000000000000000000000000000000000000815260040180806020018281038252601d8152602001807f6d696e74546f4c50733a206e6f2045786368616e67652065786973747300000081525060200191505060405180910390fd5b600080905060008090505b600860009054906101000a900473ffffffffffffffffffffffffffffffffffffffff1673ffffffffffffffffffffffffffffffffffffffff16634c4523a66040518163ffffffff167c010000000000000000000000000000000000000000000000000000000002815260040160206040518083038186803b1580156118f657600080fd5b505afa15801561190a573d6000803e3d6000fd5b505050506040513d602081101561192057600080fd5b8101908080519060200190929190505050811015611d23576000600860009054906101000a900473ffffffffffffffffffffffffffffffffffffffff1673ffffffffffffffffffffffffffffffffffffffff1663f40a39a7836040518263ffffffff167c01000000000000000000000000000000000000000000000000000000000281526004018082815260200191505060206040518083038186803b1580156119c957600080fd5b505afa1580156119dd573d6000803e3d6000fd5b505050506040513d60208110156119f357600080fd5b810190808051906020019092919050505090508073ffffffffffffffffffffffffffffffffffffffff1663fdf25b136040518163ffffffff167c010000000000000000000000000000000000000000000000000000000002815260040160206040518083038186803b158015611a6857600080fd5b505afa158015611a7c573d6000803e3d6000fd5b505050506040513d6020811015611a9257600080fd5b8101908080519060200190929190505050600b60008373ffffffffffffffffffffffffffffffffffffffff1673ffffffffffffffffffffffffffffffffffffffff168152602001908152602001600020819055506000600a60008373ffffffffffffffffffffffffffffffffffffffff1673ffffffffffffffffffffffffffffffffffffffff168152602001908152602001600020541115611c0857620f4240600a60008373ffffffffffffffffffffffffffffffffffffffff1673ffffffffffffffffffffffffffffffffffffffff16815260200190815260200160002054620f4240600b60008573ffffffffffffffffffffffffffffffffffffffff1673ffffffffffffffffffffffffffffffffffffffff168152602001908152602001600020540281611bbe57fe5b0403600c60008373ffffffffffffffffffffffffffffffffffffffff1673ffffffffffffffffffffffffffffffffffffffff16815260200190815260200160002081905550611cd1565b6000600c60008373ffffffffffffffffffffffffffffffffffffffff1673ffffffffffffffffffffffffffffffffffffffff16815260200190815260200160002081905550600b60008273ffffffffffffffffffffffffffffffffffffffff1673ffffffffffffffffffffffffffffffffffffffff16815260200190815260200160002054600a60008373ffffffffffffffffffffffffffffffffffffffff1673ffffffffffffffffffffffffffffffffffffffff168152602001908152602001600020819055505b600c60008273ffffffffffffffffffffffffffffffffffffffff1673ffffffffffffffffffffffffffffffffffffffff1681526020019081526020016000205483019250508080600101915050611872565b506000811415611d37576002915050611fc5565b60008090505b600860009054906101000a900473ffffffffffffffffffffffffffffffffffffffff1673ffffffffffffffffffffffffffffffffffffffff16634c4523a66040518163ffffffff167c010000000000000000000000000000000000000000000000000000000002815260040160206040518083038186803b158015611dc157600080fd5b505afa158015611dd5573d6000803e3d6000fd5b505050506040513d6020811015611deb57600080fd5b8101908080519060200190929190505050811015611fbe576000600860009054906101000a900473ffffffffffffffffffffffffffffffffffffffff1673ffffffffffffffffffffffffffffffffffffffff1663f40a39a7836040518263ffffffff167c01000000000000000000000000000000000000000000000000000000000281526004018082815260200191505060206040518083038186803b158015611e9457600080fd5b505afa158015611ea8573d6000803e3d6000fd5b505050506040513d6020811015611ebe57600080fd5b810190808051906020019092919050505090506000600c60008373ffffffffffffffffffffffffffffffffffffffff1673ffffffffffffffffffffffffffffffffffffffff16815260200190815260200160002054600954029050611f2c82858381611f2657fe5b046129c2565b600b60008373ffffffffffffffffffffffffffffffffffffffff1673ffffffffffffffffffffffffffffffffffffffff16815260200190815260200160002054600a60008473ffffffffffffffffffffffffffffffffffffffff1673ffffffffffffffffffffffffffffffffffffffff1681526020019081526020016000208190555050508080600101915050611d3d565b5060009150505b90565b6000600260008473ffffffffffffffffffffffffffffffffffffffff1673ffffffffffffffffffffffffffffffffffffffff16815260200190815260200160002060008373ffffffffffffffffffffffffffffffffffffffff1673ffffffffffffffffffffffffffffffffffffffff16815260200190815260200160002054905092915050565b61205983836115b6565b50612066338484846127a1565b6120bb576040517f08c379a000000000000000000000000000000000000000000000000000000000815260040180806020018281038252602e81526020018061306d602e913960400191505060405180910390fd5b505050565b3373ffffffffffffffffffffffffffffffffffffffff166120df611434565b73ffffffffffffffffffffffffffffffffffffffff1614612168576040517f08c379a00000000000000000000000000000000000000000000000000000000081526004018080602001828103825260208152602001807f4f776e61626c653a2063616c6c6572206973206e6f7420746865206f776e657281525060200191505060405180910390fd5b600073ffffffffffffffffffffffffffffffffffffffff168173ffffffffffffffffffffffffffffffffffffffff1614156121ee576040517f08c379a000000000000000000000000000000000000000000000000000000000815260040180806020018281038252602681526020018061309b6026913960400191505060405180910390fd5b6121f7816126db565b50565b600073ffffffffffffffffffffffffffffffffffffffff168373ffffffffffffffffffffffffffffffffffffffff161415612280576040517f08c379a00000000000000000000000000000000000000000000000000000000081526004018080602001828103825260238152602001806131286023913960400191505060405180910390fd5b600073ffffffffffffffffffffffffffffffffffffffff168273ffffffffffffffffffffffffffffffffffffffff161415612306576040517f08c379a000000000000000000000000000000000000000000000000000000000815260040180806020018281038252602181526020018061304c6021913960400191505060405180910390fd5b80600260008573ffffffffffffffffffffffffffffffffffffffff1673ffffffffffffffffffffffffffffffffffffffff16815260200190815260200160002060008473ffffffffffffffffffffffffffffffffffffffff1673ffffffffffffffffffffffffffffffffffffffff168152602001908152602001600020819055508173ffffffffffffffffffffffffffffffffffffffff168373ffffffffffffffffffffffffffffffffffffffff167f8c5be1e5ebec7d5bd14f71427d1e84f3dd0314c0f7b2291e5b200ac8c7c3b925836040518082815260200191505060405180910390a3505050565b600073ffffffffffffffffffffffffffffffffffffffff168373ffffffffffffffffffffffffffffffffffffffff161415612477576040517f08c379a00000000000000000000000000000000000000000000000000000000081526004018080602001828103825260248152602001806131046024913960400191505060405180910390fd5b600073ffffffffffffffffffffffffffffffffffffffff168273ffffffffffffffffffffffffffffffffffffffff1614156124fd576040517f08c379a00000000000000000000000000000000000000000000000000000000081526004018080602001828103825260228152602001806130e26022913960400191505060405180910390fd5b61254f81600160008673ffffffffffffffffffffffffffffffffffffffff1673ffffffffffffffffffffffffffffffffffffffff1681526020019081526020016000205461269190919063ffffffff16565b600160008573ffffffffffffffffffffffffffffffffffffffff1673ffffffffffffffffffffffffffffffffffffffff168152602001908152602001600020819055506125e481600160008573ffffffffffffffffffffffffffffffffffffffff1673ffffffffffffffffffffffffffffffffffffffff16815260200190815260200160002054612d3390919063ffffffff16565b600160008473ffffffffffffffffffffffffffffffffffffffff1673ffffffffffffffffffffffffffffffffffffffff168152602001908152602001600020819055508173ffffffffffffffffffffffffffffffffffffffff168373ffffffffffffffffffffffffffffffffffffffff167fddf252ad1be2c89b69c2b068fc378daa952ba7f163c4a11628f55a4df523b3ef836040518082815260200191505060405180910390a3505050565b60006126d383836040518060400160405280601e81526020017f536166654d6174683a207375627472616374696f6e206f766572666c6f770000815250612dbb565b905092915050565b6000600460009054906101000a900473ffffffffffffffffffffffffffffffffffffffff16905081600460006101000a81548173ffffffffffffffffffffffffffffffffffffffff021916908373ffffffffffffffffffffffffffffffffffffffff1602179055508173ffffffffffffffffffffffffffffffffffffffff168173ffffffffffffffffffffffffffffffffffffffff167f8be0079c531659141344cd1fd0a4f28419497f9722a3daafe3b4186f6b6457e060405160405180910390a35050565b60006127c28473ffffffffffffffffffffffffffffffffffffffff16612e7b565b6127cf57600190506129ba565b60008473ffffffffffffffffffffffffffffffffffffffff16639d188c22338887876040518563ffffffff167c0100000000000000000000000000000000000000000000000000000000028152600401808573ffffffffffffffffffffffffffffffffffffffff1673ffffffffffffffffffffffffffffffffffffffff1681526020018473ffffffffffffffffffffffffffffffffffffffff1673ffffffffffffffffffffffffffffffffffffffff16815260200183815260200180602001828103825283818151815260200191508051906020019080838360005b838110156128c65780820151818401526020810190506128ab565b50505050905090810190601f1680156128f35780820380516001836020036101000a031916815260200191505b5095505050505050602060405180830381600087803b15801561291557600080fd5b505af1158015612929573d6000803e3d6000fd5b505050506040513d602081101561293f57600080fd5b81019080805190602001909291905050509050639d188c227c0100000000000000000000000000000000000000000000000000000000027bffffffffffffffffffffffffffffffffffffffffffffffffffffffff1916817bffffffffffffffffffffffffffffffffffffffffffffffffffffffff1916149150505b949350505050565b600082905060008090505b8173ffffffffffffffffffffffffffffffffffffffff1663a432904d6040518163ffffffff167c010000000000000000000000000000000000000000000000000000000002815260040160206040518083038186803b158015612a2f57600080fd5b505afa158015612a43573d6000803e3d6000fd5b505050506040513d6020811015612a5957600080fd5b8101908080519060200190929190505050811015612d2d5760008273ffffffffffffffffffffffffffffffffffffffff1663ddb01eba836040518263ffffffff167c01000000000000000000000000000000000000000000000000000000000281526004018082815260200191505060206040518083038186803b158015612ae057600080fd5b505afa158015612af4573d6000803e3d6000fd5b505050506040513d6020811015612b0a57600080fd5b810190808051906020019092919050505014612d2057612d1f8273ffffffffffffffffffffffffffffffffffffffff1663d81f84b7836040518263ffffffff167c01000000000000000000000000000000000000000000000000000000000281526004018082815260200191505060206040518083038186803b158015612b9057600080fd5b505afa158015612ba4573d6000803e3d6000fd5b505050506040513d6020811015612bba57600080fd5b81019080805190602001909291905050508373ffffffffffffffffffffffffffffffffffffffff166318160ddd6040518163ffffffff167c010000000000000000000000000000000000000000000000000000000002815260040160206040518083038186803b158015612c2d57600080fd5b505afa158015612c41573d6000803e3d6000fd5b505050506040513d6020811015612c5757600080fd5b8101908080519060200190929190505050858573ffffffffffffffffffffffffffffffffffffffff1663ddb01eba866040518263ffffffff167c01000000000000000000000000000000000000000000000000000000000281526004018082815260200191505060206040518083038186803b158015612cd657600080fd5b505afa158015612cea573d6000803e3d6000fd5b505050506040513d6020811015612d0057600080fd5b81019080805190602001909291905050500281612d1957fe5b04612e8e565b5b80806001019150506129cd565b50505050565b600080828401905083811015612db1576040517f08c379a000000000000000000000000000000000000000000000000000000000815260040180806020018281038252601b8152602001807f536166654d6174683a206164646974696f6e206f766572666c6f77000000000081525060200191505060405180910390fd5b8091505092915050565b6000838311158290612e68576040517f08c379a00000000000000000000000000000000000000000000000000000000081526004018080602001828103825283818151815260200191508051906020019080838360005b83811015612e2d578082015181840152602081019050612e12565b50505050905090810190601f168015612e5a5780820380516001836020036101000a031916815260200191505b509250505060405180910390fd5b5060008385039050809150509392505050565b600080823b905060008111915050919050565b600073ffffffffffffffffffffffffffffffffffffffff168273ffffffffffffffffffffffffffffffffffffffff161415612f31576040517f08c379a000000000000000000000000000000000000000000000000000000000815260040180806020018281038252601e8152602001807f4b4950373a206d696e7420746f20746865207a65726f2061646472657373000081525060200191505060405180910390fd5b612f4681600354612d3390919063ffffffff16565b600381905550612f9e81600160008573ffffffffffffffffffffffffffffffffffffffff1673ffffffffffffffffffffffffffffffffffffffff16815260200190815260200160002054612d3390919063ffffffff16565b600160008473ffffffffffffffffffffffffffffffffffffffff1673ffffffffffffffffffffffffffffffffffffffff168152602001908152602001600020819055508173ffffffffffffffffffffffffffffffffffffffff16600073ffffffffffffffffffffffffffffffffffffffff167fddf252ad1be2c89b69c2b068fc378daa952ba7f163c4a11628f55a4df523b3ef836040518082815260200191505060405180910390a3505056fe4b4950373a20617070726f766520746f20746865207a65726f20616464726573734b4950373a207472616e7366657220746f206e6f6e204b495037526563656976657220696d706c656d656e7465724f776e61626c653a206e6577206f776e657220697320746865207a65726f20616464726573734b616d656c656f6e3a206f6e6c7920676f7665726e2063616e20657865637574654b4950373a207472616e7366657220746f20746865207a65726f20616464726573734b4950373a207472616e736665722066726f6d20746865207a65726f20616464726573734b4950373a20617070726f76652066726f6d20746865207a65726f2061646472657373a165627a7a72305820967cc6df6b9ccf6333efd98e43fd42dfbc6bacf989b85382cfeab1729a76aaf50029",
  "source": "pragma solidity ^0.5.6;\r\n\r\nimport \"./KIP7.sol\";\r\nimport \"./IFactory.sol\";\r\nimport \"./Ownable.sol\";\r\nimport \"./Exchange.sol\";\r\n\r\n\r\n// KIP7 Factory  ->  \r\ncontract Kameleon is KIP7, Ownable {\r\n    string private _name;\r\n    string private _symbol;\r\n    address private _governAddress;\r\n    IFactory factory;\r\n\r\n    function name() public view returns (string memory) {\r\n        return _name;\r\n    }\r\n\r\n    function symbol() public view returns (string memory) {\r\n        return _symbol;\r\n    }\r\n\r\n    function decimals() public pure returns (uint8) {\r\n        return 18;\r\n    }\r\n\r\n    constructor(address factoryAddress) KIP7() public {\r\n        require(factoryAddress != address(0x0)); \r\n        factory = IFactory(factoryAddress);\r\n        _name = \"Kameleon\";\r\n        _symbol = \"KLT\";\r\n    }\r\n\r\n    function setFactoryAddress(address factoryAddress) public onlyOwner {\r\n        require(factoryAddress != address(0x0)); \r\n        factory = IFactory(factoryAddress);\r\n    }\r\n\r\n    function setGovernAddress(address governAddress) public onlyOwner {\r\n        require(governAddress != address(0x0)); \r\n        _governAddress = governAddress;\r\n    }\r\n\r\n    modifier onlyGovern() {\r\n        require(_governAddress == msg.sender, \"Kameleon: only govern can execute\");\r\n        _;\r\n    }\r\n    \r\n    function governTransfer(address from, address to, uint256 amount) public onlyGovern {\r\n        _transfer(from, to, amount);\r\n    }\r\n\r\n    /*\r\n     * minimum test \r\n     * \r\n     */\r\n    //  airdrop   \r\n    // 5000\r\n    uint256 private _totalMintAmountPerDay = 5000e18;\r\n\r\n    //   LPT ( )  \r\n    mapping(address => uint256) private _lastLPT;\r\n    mapping(address => uint256) private _currentLPT;\r\n    // last  current LPT\r\n    mapping(address => uint256) private _increasedLPT;\r\n\r\n    function getLastLPT(address addr) public view returns (uint256) {\r\n        return _lastLPT[addr];\r\n    }\r\n\r\n    function getCurrentLPT(address addr) public view returns (uint256) {\r\n        return _currentLPT[addr];\r\n    }\r\n\r\n    function getIncreasedLPT(address addr) public view returns (uint256) {\r\n        return _increasedLPT[addr];\r\n    }\r\n\r\n\r\n    // override Factory:createExchange\r\n    function createExchange(address _tokenAddress) public onlyOwner returns (address) {\r\n        address temp = factory.createExchange(_tokenAddress);\r\n        _lastLPT[temp] = 0;\r\n        return temp;\r\n    }\r\n    \r\n    // Exchnage  LP  airdrop -> \r\n    function mintToExchange(address exchangeAddress, uint256 amount) private {\r\n        Exchange exchange = Exchange(exchangeAddress);\r\n        for (uint256 i = 0; i < exchange.getAddrCount(); i++) {\r\n            if(exchange.getIndexBalance(i) != 0) {\r\n                _mint(exchange.getAddr(i), (exchange.getIndexBalance(i) * amount) /  exchange.totalSupply());\r\n            }\r\n        }\r\n    }\r\n\r\n    /** \r\n     * mintToLPs() :   ,  Exchange rewardamount   reward amount  , \r\n     * rewardamount    exchange airdrop  ,\r\n     *  exchange   address \r\n     *  address balace  \r\n     */\r\n    function mintToLPs() public onlyOwner returns (uint8) {\r\n        require(factory.getExchangeCount() > 0, \"mintToLPs: no Exchange exists\");\r\n\r\n        uint256 LPTsum = 0;\r\n        //  Exchange LPT  currentLPT, increasedLPT , increasedLPT sum  \r\n        for (uint256 i = 0; i < factory.getExchangeCount(); i++) {\r\n            address exchangeAddr = factory.getExchangeList(i);\r\n            _currentLPT[exchangeAddr] = Exchange(exchangeAddr).getLiquidityPerToken();\r\n            \r\n            // lastLPT  0      0 (increasedLPT = 0)\r\n            if (_lastLPT[exchangeAddr] > 0) {\r\n                _increasedLPT[exchangeAddr] = (_currentLPT[exchangeAddr] * 1000000 / _lastLPT[exchangeAddr]) - 1000000;\r\n            } else {\r\n                _increasedLPT[exchangeAddr] = 0;\r\n                // lastLPT  \r\n                _lastLPT[exchangeAddr] = _currentLPT[exchangeAddr];\r\n            }\r\n            LPTsum += _increasedLPT[exchangeAddr];\r\n        }\r\n        // require(LPTsum > 0, \"Kameleon: mintToLPs() LPTsum is 0\");\r\n        // LPT     x\r\n        if (LPTsum == 0) {\r\n            // LPT    \r\n            return 2;\r\n        }\r\n\r\n        // LPTsum, _totalMintAmountPerDay, increasedLPT   mintToExchange \r\n        //  lastLPT \r\n        for (uint256 i = 0; i < factory.getExchangeCount(); i++) {\r\n            address exchangeAddr = factory.getExchangeList(i);\r\n            uint256 numerator = _totalMintAmountPerDay * _increasedLPT[exchangeAddr];\r\n            \r\n            mintToExchange(exchangeAddr, numerator / LPTsum);\r\n            _lastLPT[exchangeAddr] = _currentLPT[exchangeAddr];\r\n        }\r\n        //   \r\n        return 0;\r\n    }\r\n\r\n    function changeTotalMintAmountPerDay(uint256 amount) public onlyOwner {\r\n        _totalMintAmountPerDay = amount;\r\n    }\r\n}",
  "sourcePath": "D:\\codestates\\section5\\project3\\beb-03-Kameleon\\contract\\contracts\\Kameleon.sol",
  "compiler": {
    "name": "solc",
    "version": "0.5.6+commit.b259423e.Emscripten.clang"
  },
  "schemaVersion": "3.4.7",
  "updatedAt": "2022-05-16T05:10:09.231Z",
  "devdoc": {
    "methods": {
      "allowance(address,address)": {
        "details": "See `IKIP7.allowance`.\r"
      },
      "approve(address,uint256)": {
        "details": "See `IKIP7.approve`.\r      * Requirements:\r      * - `spender` cannot be the zero address.\r"
      },
      "balanceOf(address)": {
        "details": "See `IKIP7.balanceOf`.\r"
      },
      "owner()": {
        "details": "Returns the address of the current owner.\r"
      },
      "renounceOwnership()": {
        "details": "Leaves the contract without owner. It will not be possible to call\r `onlyOwner` functions anymore. Can only be called by the current owner.\r      * NOTE: Renouncing ownership will leave the contract without an owner,\r thereby removing any functionality that is only available to the owner.\r"
      },
      "safeTransfer(address,uint256)": {
        "details": "Moves `amount` tokens from the caller's account to `recipient`.\r"
      },
      "safeTransfer(address,uint256,bytes)": {
        "details": "Moves `amount` tokens from the caller's account to `recipient`.\r"
      },
      "safeTransferFrom(address,address,uint256)": {
        "details": "Moves `amount` tokens from `sender` to `recipient` using the allowance mechanism.\r `amount` is then deducted from the caller's allowance.\r"
      },
      "safeTransferFrom(address,address,uint256,bytes)": {
        "details": "Moves `amount` tokens from `sender` to `recipient` using the allowance mechanism.\r `amount` is then deducted from the caller's allowance.\r"
      },
      "supportsInterface(bytes4)": {
        "details": "See `IKIP13.supportsInterface`.\r      * Time complexity O(1), guaranteed to always use less than 30 000 gas.\r"
      },
      "totalSupply()": {
        "details": "See `IKIP7.totalSupply`.\r"
      },
      "transfer(address,uint256)": {
        "details": "See `IKIP7.transfer`.\r      * Requirements:\r      * - `recipient` cannot be the zero address.\r - the caller must have a balance of at least `amount`.\r"
      },
      "transferFrom(address,address,uint256)": {
        "details": "See `IKIP7.transferFrom`.\r      * Emits an `Approval` event indicating the updated allowance. This is not\r required by the KIP. See the note at the beginning of `KIP7`;\r      * Requirements:\r - `sender` and `recipient` cannot be the zero address.\r - `sender` must have a balance of at least `value`.\r - the caller must have allowance for `sender`'s tokens of at least\r `amount`.\r"
      },
      "transferOwnership(address)": {
        "details": "Transfers ownership of the contract to a new account (`newOwner`).\r Can only be called by the current owner.\r"
      }
    }
  },
  "userdoc": {
    "methods": {
      "mintToLPs()": {
        "notice": "mintToLPs() :   ,  Exchange rewardamount   reward amount  , \r rewardamount    exchange airdrop  ,\r  exchange   address \r  address balace  \r"
      }
    }
  }
}