{
  "contractName": "Oracle",
  "abi": [
    {
      "constant": false,
      "inputs": [],
      "name": "renounceOwnership",
      "outputs": [],
      "payable": false,
      "stateMutability": "nonpayable",
      "type": "function"
    },
    {
      "constant": true,
      "inputs": [],
      "name": "owner",
      "outputs": [
        {
          "name": "",
          "type": "address"
        }
      ],
      "payable": false,
      "stateMutability": "view",
      "type": "function"
    },
    {
      "constant": false,
      "inputs": [
        {
          "name": "newOwner",
          "type": "address"
        }
      ],
      "name": "transferOwnership",
      "outputs": [],
      "payable": false,
      "stateMutability": "nonpayable",
      "type": "function"
    },
    {
      "inputs": [],
      "payable": false,
      "stateMutability": "nonpayable",
      "type": "constructor"
    },
    {
      "anonymous": false,
      "inputs": [
        {
          "indexed": true,
          "name": "previousOwner",
          "type": "address"
        },
        {
          "indexed": true,
          "name": "newOwner",
          "type": "address"
        }
      ],
      "name": "OwnershipTransferred",
      "type": "event"
    },
    {
      "constant": false,
      "inputs": [
        {
          "name": "name_",
          "type": "string"
        },
        {
          "name": "symbol_",
          "type": "string"
        }
      ],
      "name": "createKStock",
      "outputs": [
        {
          "name": "",
          "type": "address"
        }
      ],
      "payable": false,
      "stateMutability": "nonpayable",
      "type": "function"
    },
    {
      "constant": true,
      "inputs": [
        {
          "name": "index",
          "type": "uint256"
        }
      ],
      "name": "getKStockAddressByIndex",
      "outputs": [
        {
          "name": "",
          "type": "address"
        }
      ],
      "payable": false,
      "stateMutability": "view",
      "type": "function"
    },
    {
      "constant": true,
      "inputs": [
        {
          "name": "kStockAddr",
          "type": "address"
        }
      ],
      "name": "getIndexByAddress",
      "outputs": [
        {
          "name": "",
          "type": "uint256"
        }
      ],
      "payable": false,
      "stateMutability": "view",
      "type": "function"
    },
    {
      "constant": true,
      "inputs": [
        {
          "name": "kStockAddr",
          "type": "address"
        }
      ],
      "name": "getPriceByAddress",
      "outputs": [
        {
          "name": "",
          "type": "uint256"
        }
      ],
      "payable": false,
      "stateMutability": "view",
      "type": "function"
    },
    {
      "constant": true,
      "inputs": [],
      "name": "getStockList",
      "outputs": [
        {
          "name": "",
          "type": "string[]"
        }
      ],
      "payable": false,
      "stateMutability": "view",
      "type": "function"
    },
    {
      "constant": true,
      "inputs": [],
      "name": "getKStockCount",
      "outputs": [
        {
          "name": "",
          "type": "uint256"
        }
      ],
      "payable": false,
      "stateMutability": "view",
      "type": "function"
    },
    {
      "constant": false,
      "inputs": [
        {
          "name": "priceArr",
          "type": "uint256[]"
        }
      ],
      "name": "setOraclePrice",
      "outputs": [],
      "payable": false,
      "stateMutability": "nonpayable",
      "type": "function"
    },
    {
      "constant": true,
      "inputs": [],
      "name": "getOraclePrice",
      "outputs": [
        {
          "name": "",
          "type": "uint256[]"
        }
      ],
      "payable": false,
      "stateMutability": "view",
      "type": "function"
    }
  ],
  "bytecode": "0x6080604052600060045534801561001557600080fd5b5061002e33610074640100000000026401000000009004565b33600160006101000a81548173ffffffffffffffffffffffffffffffffffffffff021916908373ffffffffffffffffffffffffffffffffffffffff160217905550610138565b60008060009054906101000a900473ffffffffffffffffffffffffffffffffffffffff169050816000806101000a81548173ffffffffffffffffffffffffffffffffffffffff021916908373ffffffffffffffffffffffffffffffffffffffff1602179055508173ffffffffffffffffffffffffffffffffffffffff168173ffffffffffffffffffffffffffffffffffffffff167f8be0079c531659141344cd1fd0a4f28419497f9722a3daafe3b4186f6b6457e060405160405180910390a35050565b613e15806101476000396000f3fe60806040523480156200001157600080fd5b5060043610620000d5576000357c010000000000000000000000000000000000000000000000000000000090048063796da7af1162000098578063796da7af14620001945780637ebef98414620001b65780638da5cb5b14620001ec5780639e345fc2146200020e578063c9d558f11462000244578063f2fde38b146200026657620000d5565b80631973ef9114620000da5780631d9302921462000110578063223c8efa1462000132578063715018a614620001525780637605608c146200015e575b600080fd5b620000f86004803603620000f2919081019062000d90565b62000286565b604051620001079190620013e1565b60405180910390f35b6200011a620003b5565b604051620001299190620012b4565b60405180910390f35b6200015060048036036200014a919081019062000dbc565b6200050b565b005b6200015c62000679565b005b6200017c600480360362000176919081019062000e46565b62000701565b6040516200018b91906200127a565b60405180910390f35b6200019e62000926565b604051620001ad9190620012d8565b60405180910390f35b620001d46004803603620001ce919081019062000d90565b620009b5565b604051620001e39190620013e1565b60405180910390f35b620001f6620009df565b6040516200020591906200127a565b60405180910390f35b6200022c600480360362000226919081019062000eb9565b62000a08565b6040516200023b91906200127a565b60405180910390f35b6200024e62000a48565b6040516200025d9190620013e1565b60405180910390f35b6200028460048036036200027e919081019062000d90565b62000a52565b005b60008173ffffffffffffffffffffffffffffffffffffffff1660026000600360008673ffffffffffffffffffffffffffffffffffffffff1673ffffffffffffffffffffffffffffffffffffffff16815260200190815260200160002054815260200190815260200160002060000160009054906101000a900473ffffffffffffffffffffffffffffffffffffffff1673ffffffffffffffffffffffffffffffffffffffff16146200036e576040517f08c379a000000000000000000000000000000000000000000000000000000000815260040162000365906200137b565b60405180910390fd5b600360008373ffffffffffffffffffffffffffffffffffffffff1673ffffffffffffffffffffffffffffffffffffffff168152602001908152602001600020549050919050565b606080600454604051908082528060200260200182016040528015620003f057816020015b6060815260200190600190039081620003da5790505b50905060008090505b60045481101562000503576002600082815260200190815260200160002060000160009054906101000a900473ffffffffffffffffffffffffffffffffffffffff1673ffffffffffffffffffffffffffffffffffffffff166306fdde036040518163ffffffff167c010000000000000000000000000000000000000000000000000000000002815260040160006040518083038186803b1580156200049d57600080fd5b505afa158015620004b2573d6000803e3d6000fd5b505050506040513d6000823e3d601f19601f82011682018060405250620004dd919081019062000e01565b828281518110620004ea57fe5b60200260200101819052508080600101915050620003f9565b508091505090565b3373ffffffffffffffffffffffffffffffffffffffff166200052c620009df565b73ffffffffffffffffffffffffffffffffffffffff161462000585576040517f08c379a00000000000000000000000000000000000000000000000000000000081526004016200057c906200139d565b60405180910390fd5b805160045414620005cd576040517f08c379a0000000000000000000000000000000000000000000000000000000008152600401620005c49062001359565b60405180910390fd5b60008090505b60045481101562000675576000828281518110620005ed57fe5b60200260200101511162000638576040517f08c379a00000000000000000000000000000000000000000000000000000000081526004016200062f90620013bf565b60405180910390fd5b8181815181106200064557fe5b602002602001015160026000838152602001908152602001600020600101819055508080600101915050620005d3565b5050565b3373ffffffffffffffffffffffffffffffffffffffff166200069a620009df565b73ffffffffffffffffffffffffffffffffffffffff1614620006f3576040517f08c379a0000000000000000000000000000000000000000000000000000000008152600401620006ea906200139d565b60405180910390fd5b620006ff600062000b4d565b565b60003373ffffffffffffffffffffffffffffffffffffffff1662000724620009df565b73ffffffffffffffffffffffffffffffffffffffff16146200077d576040517f08c379a000000000000000000000000000000000000000000000000000000000815260040162000774906200139d565b60405180910390fd5b600083836040516200078f9062000c11565b6200079c929190620012fc565b604051809103906000f080158015620007b9573d6000803e3d6000fd5b5090508073ffffffffffffffffffffffffffffffffffffffff1663f2fde38b336040518263ffffffff167c010000000000000000000000000000000000000000000000000000000002815260040162000813919062001297565b600060405180830381600087803b1580156200082e57600080fd5b505af115801562000843573d6000803e3d6000fd5b50505050600454600360008373ffffffffffffffffffffffffffffffffffffffff1673ffffffffffffffffffffffffffffffffffffffff168152602001908152602001600020819055508060026000600454815260200190815260200160002060000160006101000a81548173ffffffffffffffffffffffffffffffffffffffff021916908373ffffffffffffffffffffffffffffffffffffffff160217905550686c6b935b8bbd400000600260006004548152602001908152602001600020600101819055506004600081548092919060010191905055508091505092915050565b6060806004546040519080825280602002602001820160405280156200095b5781602001602082028038833980820191505090505b50905060008090505b600454811015620009ad5760026000828152602001908152602001600020600101548282815181106200099357fe5b602002602001018181525050808060010191505062000964565b508091505090565b600060026000620009c68462000286565b8152602001908152602001600020600101549050919050565b60008060009054906101000a900473ffffffffffffffffffffffffffffffffffffffff16905090565b60006002600083815260200190815260200160002060000160009054906101000a900473ffffffffffffffffffffffffffffffffffffffff169050919050565b6000600454905090565b3373ffffffffffffffffffffffffffffffffffffffff1662000a73620009df565b73ffffffffffffffffffffffffffffffffffffffff161462000acc576040517f08c379a000000000000000000000000000000000000000000000000000000000815260040162000ac3906200139d565b60405180910390fd5b600073ffffffffffffffffffffffffffffffffffffffff168173ffffffffffffffffffffffffffffffffffffffff16141562000b3f576040517f08c379a000000000000000000000000000000000000000000000000000000000815260040162000b369062001337565b60405180910390fd5b62000b4a8162000b4d565b50565b60008060009054906101000a900473ffffffffffffffffffffffffffffffffffffffff169050816000806101000a81548173ffffffffffffffffffffffffffffffffffffffff021916908373ffffffffffffffffffffffffffffffffffffffff1602179055508173ffffffffffffffffffffffffffffffffffffffff168173ffffffffffffffffffffffffffffffffffffffff167f8be0079c531659141344cd1fd0a4f28419497f9722a3daafe3b4186f6b6457e060405160405180910390a35050565b6127a7806200163583390190565b600062000c2d823562001564565b905092915050565b600082601f83011262000c4757600080fd5b813562000c5e62000c58826200142c565b620013fe565b9150818183526020840193506020810190508385602084028201111562000c8457600080fd5b60005b8381101562000cb8578162000c9d888262000d7a565b84526020840193506020830192505060018101905062000c87565b5050505092915050565b600082601f83011262000cd457600080fd5b813562000ceb62000ce58262001455565b620013fe565b9150808252602083016020830185838301111562000d0857600080fd5b62000d15838284620015de565b50505092915050565b600082601f83011262000d3057600080fd5b815162000d4762000d418262001455565b620013fe565b9150808252602083016020830185838301111562000d6457600080fd5b62000d71838284620015ed565b50505092915050565b600062000d88823562001598565b905092915050565b60006020828403121562000da357600080fd5b600062000db38482850162000c1f565b91505092915050565b60006020828403121562000dcf57600080fd5b600082013567ffffffffffffffff81111562000dea57600080fd5b62000df88482850162000c35565b91505092915050565b60006020828403121562000e1457600080fd5b600082015167ffffffffffffffff81111562000e2f57600080fd5b62000e3d8482850162000d1e565b91505092915050565b6000806040838503121562000e5a57600080fd5b600083013567ffffffffffffffff81111562000e7557600080fd5b62000e838582860162000cc2565b925050602083013567ffffffffffffffff81111562000ea157600080fd5b62000eaf8582860162000cc2565b9150509250929050565b60006020828403121562000ecc57600080fd5b600062000edc8482850162000d7a565b91505092915050565b600062000ef383836200105b565b905092915050565b600062000f09838362001258565b60208301905092915050565b62000f2081620015a2565b82525050565b62000f318162001526565b82525050565b600062000f44826200149c565b62000f508185620014e2565b93508360208202850162000f648562001482565b60005b8481101562000fa357838303885262000f8283835162000ee5565b925062000f8f82620014c8565b915060208801975060018101905062000f67565b508196508694505050505092915050565b600062000fc182620014a7565b62000fcd8185620014f3565b935062000fda836200148f565b60005b828110156200100e5762000ff386835162000efb565b95506200100082620014d5565b915060018101905062000fdd565b50849250505092915050565b60006200102782620014bd565b62001033818562001515565b935062001045818560208601620015ed565b620010508162001623565b840191505092915050565b60006200106882620014b2565b62001074818562001504565b935062001086818560208601620015ed565b620010918162001623565b840191505092915050565b6000620010ab60268362001515565b91507f4f776e61626c653a206e6577206f776e657220697320746865207a65726f206160008301527f64647265737300000000000000000000000000000000000000000000000000006020830152604082019050919050565b60006200111360208362001515565b91507f4f7261636c653a206e756d626572206f662070726963652069732077726f6e676000830152602082019050919050565b60006200115560248362001515565b91507f4f7261636c653a206b53746f636b2061646472657373206973206e6f7420657860008301527f69737473000000000000000000000000000000000000000000000000000000006020830152604082019050919050565b6000620011bd60208362001515565b91507f4f776e61626c653a2063616c6c6572206973206e6f7420746865206f776e65726000830152602082019050919050565b6000620011ff60238362001515565b91507f4f7261636c653a2070726963652073686f756c64206265206d6f72652074686160008301527f6e203000000000000000000000000000000000000000000000000000000000006020830152604082019050919050565b62001263816200155a565b82525050565b62001274816200155a565b82525050565b600060208201905062001291600083018462000f26565b92915050565b6000602082019050620012ae600083018462000f15565b92915050565b60006020820190508181036000830152620012d0818462000f37565b905092915050565b60006020820190508181036000830152620012f4818462000fb4565b905092915050565b600060408201905081810360008301526200131881856200101a565b905081810360208301526200132e81846200101a565b90509392505050565b6000602082019050818103600083015262001352816200109c565b9050919050565b60006020820190508181036000830152620013748162001104565b9050919050565b60006020820190508181036000830152620013968162001146565b9050919050565b60006020820190508181036000830152620013b881620011ae565b9050919050565b60006020820190508181036000830152620013da81620011f0565b9050919050565b6000602082019050620013f8600083018462001269565b92915050565b6000604051905081810181811067ffffffffffffffff821117156200142257600080fd5b8060405250919050565b600067ffffffffffffffff8211156200144457600080fd5b602082029050602081019050919050565b600067ffffffffffffffff8211156200146d57600080fd5b601f19601f8301169050602081019050919050565b6000602082019050919050565b6000602082019050919050565b600081519050919050565b600081519050919050565b600081519050919050565b600081519050919050565b6000602082019050919050565b6000602082019050919050565b600082825260208201905092915050565b600082825260208201905092915050565b600082825260208201905092915050565b600082825260208201905092915050565b600062001533826200153a565b9050919050565b600073ffffffffffffffffffffffffffffffffffffffff82169050919050565b6000819050919050565b6000620015718262001578565b9050919050565b600073ffffffffffffffffffffffffffffffffffffffff82169050919050565b6000819050919050565b6000620015af82620015b6565b9050919050565b6000620015c382620015ca565b9050919050565b6000620015d7826200153a565b9050919050565b82818337600083830152505050565b60005b838110156200160d578082015181840152602081019050620015f0565b838111156200161d576000848401525b50505050565b6000601f19601f830116905091905056fe608060405260016009553480156200001657600080fd5b50604051620027a7380380620027a7833981018060405260408110156200003c57600080fd5b8101908080516401000000008111156200005557600080fd5b828101905060208101848111156200006c57600080fd5b81518560018202830111640100000000821117156200008a57600080fd5b50509291906020018051640100000000811115620000a757600080fd5b82810190506020810184811115620000be57600080fd5b8151856001820283011164010000000082111715620000dc57600080fd5b5050929190505050620001216301ffc9a77c010000000000000000000000000000000000000000000000000000000002620001f3640100000000026401000000009004565b6200015e63657873717c010000000000000000000000000000000000000000000000000000000002620001f3640100000000026401000000009004565b620001783362000318640100000000026401000000009004565b816005908051906020019062000190929190620003de565b508060069080519060200190620001a9929190620003de565b5033600760006101000a81548173ffffffffffffffffffffffffffffffffffffffff021916908373ffffffffffffffffffffffffffffffffffffffff16021790555050506200048d565b63ffffffff7c010000000000000000000000000000000000000000000000000000000002817bffffffffffffffffffffffffffffffffffffffffffffffffffffffff19161415620002ac576040517f08c379a000000000000000000000000000000000000000000000000000000000815260040180806020018281038252601b8152602001807f4b495031333a20696e76616c696420696e74657266616365206964000000000081525060200191505060405180910390fd5b6001600080837bffffffffffffffffffffffffffffffffffffffffffffffffffffffff19167bffffffffffffffffffffffffffffffffffffffffffffffffffffffff1916815260200190815260200160002060006101000a81548160ff02191690831515021790555050565b6000600460009054906101000a900473ffffffffffffffffffffffffffffffffffffffff16905081600460006101000a81548173ffffffffffffffffffffffffffffffffffffffff021916908373ffffffffffffffffffffffffffffffffffffffff1602179055508173ffffffffffffffffffffffffffffffffffffffff168173ffffffffffffffffffffffffffffffffffffffff167f8be0079c531659141344cd1fd0a4f28419497f9722a3daafe3b4186f6b6457e060405160405180910390a35050565b828054600181600116156101000203166002900490600052602060002090601f016020900481019282601f106200042157805160ff191683800117855562000452565b8280016001018555821562000452579182015b828111156200045157825182559160200191906001019062000434565b5b50905062000461919062000465565b5090565b6200048a91905b80821115620004865760008160009055506001016200046c565b5090565b90565b61230a806200049d6000396000f3fe60806040526004361061015d576000357c0100000000000000000000000000000000000000000000000000000000900480635bbe4f1e116100d3578063a9059cbb1161008c578063a9059cbb1461071d578063b88d4fde14610790578063dd62ed3e146108a2578063eb79554914610927578063f2fde38b14610a19578063fbd38bd114610a6a5761015d565b80635bbe4f1e1461053057806370a082311461056b578063715018a6146105d05780638da5cb5b146105e757806395d89b411461063e5780639de2f796146106ce5761015d565b806323b872dd1161012557806323b872dd1461030c57806331384ef31461039f578063313ce567146103ee578063423f6cef1461041f57806342842e0e1461047a57806342966c68146104f55761015d565b806301ffc9a71461016257806306fdde03146101d4578063095ea7b3146102645780631249c58b146102d757806318160ddd146102e1575b600080fd5b34801561016e57600080fd5b506101ba6004803603602081101561018557600080fd5b8101908080357bffffffffffffffffffffffffffffffffffffffffffffffffffffffff19169060200190929190505050610a74565b604051808215151515815260200191505060405180910390f35b3480156101e057600080fd5b506101e9610adb565b6040518080602001828103825283818151815260200191508051906020019080838360005b8381101561022957808201518184015260208101905061020e565b50505050905090810190601f1680156102565780820380516001836020036101000a031916815260200191505b509250505060405180910390f35b34801561027057600080fd5b506102bd6004803603604081101561028757600080fd5b81019080803573ffffffffffffffffffffffffffffffffffffffff16906020019092919080359060200190929190505050610b7d565b604051808215151515815260200191505060405180910390f35b6102df610b94565b005b3480156102ed57600080fd5b506102f6610ba8565b6040518082815260200191505060405180910390f35b34801561031857600080fd5b506103856004803603606081101561032f57600080fd5b81019080803573ffffffffffffffffffffffffffffffffffffffff169060200190929190803573ffffffffffffffffffffffffffffffffffffffff16906020019092919080359060200190929190505050610bb2565b604051808215151515815260200191505060405180910390f35b3480156103ab57600080fd5b506103d8600480360360208110156103c257600080fd5b8101908080359060200190929190505050610c63565b6040518082815260200191505060405180910390f35b3480156103fa57600080fd5b50610403610d82565b604051808260ff1660ff16815260200191505060405180910390f35b34801561042b57600080fd5b506104786004803603604081101561044257600080fd5b81019080803573ffffffffffffffffffffffffffffffffffffffff16906020019092919080359060200190929190505050610d8b565b005b34801561048657600080fd5b506104f36004803603606081101561049d57600080fd5b81019080803573ffffffffffffffffffffffffffffffffffffffff169060200190929190803573ffffffffffffffffffffffffffffffffffffffff16906020019092919080359060200190929190505050610da9565b005b34801561050157600080fd5b5061052e6004803603602081101561051857600080fd5b8101908080359060200190929190505050610dc9565b005b34801561053c57600080fd5b506105696004803603602081101561055357600080fd5b8101908080359060200190929190505050610e25565b005b34801561057757600080fd5b506105ba6004803603602081101561058e57600080fd5b81019080803573ffffffffffffffffffffffffffffffffffffffff169060200190929190505050610f17565b6040518082815260200191505060405180910390f35b3480156105dc57600080fd5b506105e5610f60565b005b3480156105f357600080fd5b506105fc611014565b604051808273ffffffffffffffffffffffffffffffffffffffff1673ffffffffffffffffffffffffffffffffffffffff16815260200191505060405180910390f35b34801561064a57600080fd5b5061065361103e565b6040518080602001828103825283818151815260200191508051906020019080838360005b83811015610693578082015181840152602081019050610678565b50505050905090810190601f1680156106c05780820380516001836020036101000a031916815260200191505b509250505060405180910390f35b3480156106da57600080fd5b50610707600480360360208110156106f157600080fd5b81019080803590602001909291905050506110e0565b6040518082815260200191505060405180910390f35b34801561072957600080fd5b506107766004803603604081101561074057600080fd5b81019080803573ffffffffffffffffffffffffffffffffffffffff169060200190929190803590602001909291905050506111fd565b604051808215151515815260200191505060405180910390f35b34801561079c57600080fd5b506108a0600480360360808110156107b357600080fd5b81019080803573ffffffffffffffffffffffffffffffffffffffff169060200190929190803573ffffffffffffffffffffffffffffffffffffffff169060200190929190803590602001909291908035906020019064010000000081111561081a57600080fd5b82018360208201111561082c57600080fd5b8035906020019184600183028401116401000000008311171561084e57600080fd5b91908080601f016020809104026020016040519081016040528093929190818152602001838380828437600081840152601f19601f820116905080830192505050505050509192919290505050611214565b005b3480156108ae57600080fd5b50610911600480360360408110156108c557600080fd5b81019080803573ffffffffffffffffffffffffffffffffffffffff169060200190929190803573ffffffffffffffffffffffffffffffffffffffff169060200190929190505050611287565b6040518082815260200191505060405180910390f35b34801561093357600080fd5b50610a176004803603606081101561094a57600080fd5b81019080803573ffffffffffffffffffffffffffffffffffffffff169060200190929190803590602001909291908035906020019064010000000081111561099157600080fd5b8201836020820111156109a357600080fd5b803590602001918460018302840111640100000000831117156109c557600080fd5b91908080601f016020809104026020016040519081016040528093929190818152602001838380828437600081840152601f19601f82011690508083019250505050505050919291929050505061130e565b005b348015610a2557600080fd5b50610a6860048036036020811015610a3c57600080fd5b81019080803573ffffffffffffffffffffffffffffffffffffffff16906020019092919050505061137f565b005b610a726114b9565b005b6000806000837bffffffffffffffffffffffffffffffffffffffffffffffffffffffff19167bffffffffffffffffffffffffffffffffffffffffffffffffffffffff1916815260200190815260200160002060009054906101000a900460ff169050919050565b606060058054600181600116156101000203166002900480601f016020809104026020016040519081016040528092919081815260200182805460018160011615610100020316600290048015610b735780601f10610b4857610100808354040283529160200191610b73565b820191906000526020600020905b815481529060010190602001808311610b5657829003601f168201915b5050505050905090565b6000610b8a338484611563565b6001905092915050565b610ba633610ba1346110e0565b61175a565b565b6000600354905090565b6000610bbf848484611917565b610c588433610c5385600260008a73ffffffffffffffffffffffffffffffffffffffff1673ffffffffffffffffffffffffffffffffffffffff16815260200190815260200160002060003373ffffffffffffffffffffffffffffffffffffffff1673ffffffffffffffffffffffffffffffffffffffff16815260200190815260200160002054611bb790919063ffffffff16565b611563565b600190509392505050565b600080600760009054906101000a900473ffffffffffffffffffffffffffffffffffffffff1673ffffffffffffffffffffffffffffffffffffffff16637ebef984306040518263ffffffff167c0100000000000000000000000000000000000000000000000000000000028152600401808273ffffffffffffffffffffffffffffffffffffffff1673ffffffffffffffffffffffffffffffffffffffff16815260200191505060206040518083038186803b158015610d2157600080fd5b505afa158015610d35573d6000803e3d6000fd5b505050506040513d6020811015610d4b57600080fd5b8101908080519060200190929190505050905068056bc75e2d631000008160095460640385020281610d7957fe5b04915050919050565b60006012905090565b610da582826040518060200160405280600081525061130e565b5050565b610dc483838360405180602001604052806000815250611214565b505050565b610dd33382611c01565b3373ffffffffffffffffffffffffffffffffffffffff166108fc610df683610c63565b9081150290604051600060405180830381858888f19350505050158015610e21573d6000803e3d6000fd5b5050565b3373ffffffffffffffffffffffffffffffffffffffff16610e44611014565b73ffffffffffffffffffffffffffffffffffffffff1614610ecd576040517f08c379a00000000000000000000000000000000000000000000000000000000081526004018080602001828103825260208152602001807f4f776e61626c653a2063616c6c6572206973206e6f7420746865206f776e657281525060200191505060405180910390fd5b3373ffffffffffffffffffffffffffffffffffffffff166108fc829081150290604051600060405180830381858888f19350505050158015610f13573d6000803e3d6000fd5b5050565b6000600160008373ffffffffffffffffffffffffffffffffffffffff1673ffffffffffffffffffffffffffffffffffffffff168152602001908152602001600020549050919050565b3373ffffffffffffffffffffffffffffffffffffffff16610f7f611014565b73ffffffffffffffffffffffffffffffffffffffff1614611008576040517f08c379a00000000000000000000000000000000000000000000000000000000081526004018080602001828103825260208152602001807f4f776e61626c653a2063616c6c6572206973206e6f7420746865206f776e657281525060200191505060405180910390fd5b6110126000611dbe565b565b6000600460009054906101000a900473ffffffffffffffffffffffffffffffffffffffff16905090565b606060068054600181600116156101000203166002900480601f0160208091040260200160405190810160405280929190818152602001828054600181600116156101000203166002900480156110d65780601f106110ab576101008083540402835291602001916110d6565b820191906000526020600020905b8154815290600101906020018083116110b957829003601f168201915b5050505050905090565b600080600760009054906101000a900473ffffffffffffffffffffffffffffffffffffffff1673ffffffffffffffffffffffffffffffffffffffff16637ebef984306040518263ffffffff167c0100000000000000000000000000000000000000000000000000000000028152600401808273ffffffffffffffffffffffffffffffffffffffff1673ffffffffffffffffffffffffffffffffffffffff16815260200191505060206040518083038186803b15801561119e57600080fd5b505afa1580156111b2573d6000803e3d6000fd5b505050506040513d60208110156111c857600080fd5b8101908080519060200190929190505050905080662386f26fc10000600954606403850202816111f457fe5b04915050919050565b600061120a338484611917565b6001905092915050565b61121f848484610bb2565b5061122c84848484611e84565b611281576040517f08c379a000000000000000000000000000000000000000000000000000000000815260040180806020018281038252602e815260200180612222602e913960400191505060405180910390fd5b50505050565b6000600260008473ffffffffffffffffffffffffffffffffffffffff1673ffffffffffffffffffffffffffffffffffffffff16815260200190815260200160002060008373ffffffffffffffffffffffffffffffffffffffff1673ffffffffffffffffffffffffffffffffffffffff16815260200190815260200160002054905092915050565b61131883836111fd565b5061132533848484611e84565b61137a576040517f08c379a000000000000000000000000000000000000000000000000000000000815260040180806020018281038252602e815260200180612222602e913960400191505060405180910390fd5b505050565b3373ffffffffffffffffffffffffffffffffffffffff1661139e611014565b73ffffffffffffffffffffffffffffffffffffffff1614611427576040517f08c379a00000000000000000000000000000000000000000000000000000000081526004018080602001828103825260208152602001807f4f776e61626c653a2063616c6c6572206973206e6f7420746865206f776e657281525060200191505060405180910390fd5b600073ffffffffffffffffffffffffffffffffffffffff168173ffffffffffffffffffffffffffffffffffffffff1614156114ad576040517f08c379a00000000000000000000000000000000000000000000000000000000081526004018080602001828103825260268152602001806122506026913960400191505060405180910390fd5b6114b681611dbe565b50565b3373ffffffffffffffffffffffffffffffffffffffff166114d8611014565b73ffffffffffffffffffffffffffffffffffffffff1614611561576040517f08c379a00000000000000000000000000000000000000000000000000000000081526004018080602001828103825260208152602001807f4f776e61626c653a2063616c6c6572206973206e6f7420746865206f776e657281525060200191505060405180910390fd5b565b600073ffffffffffffffffffffffffffffffffffffffff168373ffffffffffffffffffffffffffffffffffffffff1614156115e9576040517f08c379a00000000000000000000000000000000000000000000000000000000081526004018080602001828103825260238152602001806122bc6023913960400191505060405180910390fd5b600073ffffffffffffffffffffffffffffffffffffffff168273ffffffffffffffffffffffffffffffffffffffff16141561166f576040517f08c379a00000000000000000000000000000000000000000000000000000000081526004018080602001828103825260218152602001806122016021913960400191505060405180910390fd5b80600260008573ffffffffffffffffffffffffffffffffffffffff1673ffffffffffffffffffffffffffffffffffffffff16815260200190815260200160002060008473ffffffffffffffffffffffffffffffffffffffff1673ffffffffffffffffffffffffffffffffffffffff168152602001908152602001600020819055508173ffffffffffffffffffffffffffffffffffffffff168373ffffffffffffffffffffffffffffffffffffffff167f8c5be1e5ebec7d5bd14f71427d1e84f3dd0314c0f7b2291e5b200ac8c7c3b925836040518082815260200191505060405180910390a3505050565b600073ffffffffffffffffffffffffffffffffffffffff168273ffffffffffffffffffffffffffffffffffffffff1614156117fd576040517f08c379a000000000000000000000000000000000000000000000000000000000815260040180806020018281038252601e8152602001807f4b4950373a206d696e7420746f20746865207a65726f2061646472657373000081525060200191505060405180910390fd5b611812816003546120a590919063ffffffff16565b60038190555061186a81600160008573ffffffffffffffffffffffffffffffffffffffff1673ffffffffffffffffffffffffffffffffffffffff168152602001908152602001600020546120a590919063ffffffff16565b600160008473ffffffffffffffffffffffffffffffffffffffff1673ffffffffffffffffffffffffffffffffffffffff168152602001908152602001600020819055508173ffffffffffffffffffffffffffffffffffffffff16600073ffffffffffffffffffffffffffffffffffffffff167fddf252ad1be2c89b69c2b068fc378daa952ba7f163c4a11628f55a4df523b3ef836040518082815260200191505060405180910390a35050565b600073ffffffffffffffffffffffffffffffffffffffff168373ffffffffffffffffffffffffffffffffffffffff16141561199d576040517f08c379a00000000000000000000000000000000000000000000000000000000081526004018080602001828103825260248152602001806122986024913960400191505060405180910390fd5b600073ffffffffffffffffffffffffffffffffffffffff168273ffffffffffffffffffffffffffffffffffffffff161415611a23576040517f08c379a00000000000000000000000000000000000000000000000000000000081526004018080602001828103825260228152602001806122766022913960400191505060405180910390fd5b611a7581600160008673ffffffffffffffffffffffffffffffffffffffff1673ffffffffffffffffffffffffffffffffffffffff16815260200190815260200160002054611bb790919063ffffffff16565b600160008573ffffffffffffffffffffffffffffffffffffffff1673ffffffffffffffffffffffffffffffffffffffff16815260200190815260200160002081905550611b0a81600160008573ffffffffffffffffffffffffffffffffffffffff1673ffffffffffffffffffffffffffffffffffffffff168152602001908152602001600020546120a590919063ffffffff16565b600160008473ffffffffffffffffffffffffffffffffffffffff1673ffffffffffffffffffffffffffffffffffffffff168152602001908152602001600020819055508173ffffffffffffffffffffffffffffffffffffffff168373ffffffffffffffffffffffffffffffffffffffff167fddf252ad1be2c89b69c2b068fc378daa952ba7f163c4a11628f55a4df523b3ef836040518082815260200191505060405180910390a3505050565b6000611bf983836040518060400160405280601e81526020017f536166654d6174683a207375627472616374696f6e206f766572666c6f77000081525061212d565b905092915050565b600073ffffffffffffffffffffffffffffffffffffffff168273ffffffffffffffffffffffffffffffffffffffff161415611ca4576040517f08c379a00000000000000000000000000000000000000000000000000000000081526004018080602001828103825260208152602001807f4b4950373a206275726e2066726f6d20746865207a65726f206164647265737381525060200191505060405180910390fd5b611cb981600354611bb790919063ffffffff16565b600381905550611d1181600160008573ffffffffffffffffffffffffffffffffffffffff1673ffffffffffffffffffffffffffffffffffffffff16815260200190815260200160002054611bb790919063ffffffff16565b600160008473ffffffffffffffffffffffffffffffffffffffff1673ffffffffffffffffffffffffffffffffffffffff16815260200190815260200160002081905550600073ffffffffffffffffffffffffffffffffffffffff168273ffffffffffffffffffffffffffffffffffffffff167fddf252ad1be2c89b69c2b068fc378daa952ba7f163c4a11628f55a4df523b3ef836040518082815260200191505060405180910390a35050565b6000600460009054906101000a900473ffffffffffffffffffffffffffffffffffffffff16905081600460006101000a81548173ffffffffffffffffffffffffffffffffffffffff021916908373ffffffffffffffffffffffffffffffffffffffff1602179055508173ffffffffffffffffffffffffffffffffffffffff168173ffffffffffffffffffffffffffffffffffffffff167f8be0079c531659141344cd1fd0a4f28419497f9722a3daafe3b4186f6b6457e060405160405180910390a35050565b6000611ea58473ffffffffffffffffffffffffffffffffffffffff166121ed565b611eb2576001905061209d565b60008473ffffffffffffffffffffffffffffffffffffffff16639d188c22338887876040518563ffffffff167c0100000000000000000000000000000000000000000000000000000000028152600401808573ffffffffffffffffffffffffffffffffffffffff1673ffffffffffffffffffffffffffffffffffffffff1681526020018473ffffffffffffffffffffffffffffffffffffffff1673ffffffffffffffffffffffffffffffffffffffff16815260200183815260200180602001828103825283818151815260200191508051906020019080838360005b83811015611fa9578082015181840152602081019050611f8e565b50505050905090810190601f168015611fd65780820380516001836020036101000a031916815260200191505b5095505050505050602060405180830381600087803b158015611ff857600080fd5b505af115801561200c573d6000803e3d6000fd5b505050506040513d602081101561202257600080fd5b81019080805190602001909291905050509050639d188c227c0100000000000000000000000000000000000000000000000000000000027bffffffffffffffffffffffffffffffffffffffffffffffffffffffff1916817bffffffffffffffffffffffffffffffffffffffffffffffffffffffff1916149150505b949350505050565b600080828401905083811015612123576040517f08c379a000000000000000000000000000000000000000000000000000000000815260040180806020018281038252601b8152602001807f536166654d6174683a206164646974696f6e206f766572666c6f77000000000081525060200191505060405180910390fd5b8091505092915050565b60008383111582906121da576040517f08c379a00000000000000000000000000000000000000000000000000000000081526004018080602001828103825283818151815260200191508051906020019080838360005b8381101561219f578082015181840152602081019050612184565b50505050905090810190601f1680156121cc5780820380516001836020036101000a031916815260200191505b509250505060405180910390fd5b5060008385039050809150509392505050565b600080823b90506000811191505091905056fe4b4950373a20617070726f766520746f20746865207a65726f20616464726573734b4950373a207472616e7366657220746f206e6f6e204b495037526563656976657220696d706c656d656e7465724f776e61626c653a206e6577206f776e657220697320746865207a65726f20616464726573734b4950373a207472616e7366657220746f20746865207a65726f20616464726573734b4950373a207472616e736665722066726f6d20746865207a65726f20616464726573734b4950373a20617070726f76652066726f6d20746865207a65726f2061646472657373a165627a7a7230582095dfeb8e279ebbf8a6e815237fe2f40995ddfb723d63953947270f8e6c1538920029a265627a7a7230582051f76ed1e3e57c10814fd1f4765d1db07bf299711de8dac41cec0829b8d8a7d76c6578706572696d656e74616cf50037",
  "source": "// SPDX-License-Identifier: GPL-3.0\r\n\r\npragma solidity 0.5.6;\r\npragma experimental ABIEncoderV2;\r\n\r\nimport \"./KStockToken.sol\";\r\nimport \"./Ownable.sol\";\r\n\r\n// uniswap v1  KIP-7 <> Klaytn\r\ncontract Oracle is Ownable {\r\n    struct kStock {\r\n        address kStockAddress;\r\n        uint256 kStockPrice;\r\n    }\r\n    address private _owner;\r\n    \r\n    // Exchange list \r\n    mapping (uint256 => kStock) private _kStockList;\r\n    mapping (address => uint256) private _kStockIndex;\r\n    uint256 private _kStockCount = 0;\r\n\r\n    constructor () public {\r\n        _owner = msg.sender;\r\n    }\r\n\r\n    function createKStock(string memory name_, string memory symbol_) public onlyOwner returns (address) {\r\n        // require(_tokenAddress != address(0), \"Factory: invalid token address\");\r\n\r\n        //  KStock  \r\n        KStockToken kStockToken = new KStockToken(name_, symbol_);\r\n        //  \r\n        kStockToken.transferOwnership(msg.sender);\r\n\r\n        // kStock list  \r\n        _kStockIndex[address(kStockToken)] = _kStockCount;\r\n        _kStockList[_kStockCount].kStockAddress = address(kStockToken);\r\n        _kStockList[_kStockCount].kStockPrice = 2000e18;\r\n        _kStockCount++;\r\n\r\n        return address(kStockToken);\r\n    }\r\n\r\n\r\n    function getKStockAddressByIndex(uint256 index) public view returns (address) {\r\n        return _kStockList[index].kStockAddress;\r\n    }\r\n\r\n    function getIndexByAddress(address kStockAddr) public view returns (uint256) {\r\n        // 0?\r\n        require(_kStockList[_kStockIndex[kStockAddr]].kStockAddress == kStockAddr, \"Oracle: kStock address is not exists\");\r\n        return _kStockIndex[kStockAddr];\r\n    }\r\n\r\n    function getPriceByAddress(address kStockAddr) public view returns (uint256) {\r\n        return _kStockList[getIndexByAddress(kStockAddr)].kStockPrice;\r\n    }\r\n\r\n    // StockList \r\n    function getStockList() public view returns (string[] memory){\r\n        string[] memory stockList = new string[](_kStockCount);\r\n        for(uint256 i = 0; i < _kStockCount; i++) {\r\n            stockList[i] = KStockToken(_kStockList[i].kStockAddress).name();\r\n        }\r\n        return stockList;\r\n    }\r\n\r\n    function getKStockCount() public view returns (uint256) {\r\n        return _kStockCount;\r\n    }\r\n\r\n    // Oracle    1kStock   peb  (string )\r\n    function setOraclePrice(uint256[] memory priceArr) public onlyOwner {\r\n        require (_kStockCount == priceArr.length, \"Oracle: number of price is wrong\");\r\n        for(uint256 i = 0; i < _kStockCount; i++) {\r\n            require(priceArr[i] > 0, \"Oracle: price should be more than 0\");\r\n            _kStockList[i].kStockPrice = priceArr[i];\r\n        }\r\n    }\r\n\r\n    function getOraclePrice() public view returns (uint256[] memory) {\r\n        uint256[] memory priceArr = new uint256[](_kStockCount);\r\n        for(uint256 i = 0; i < _kStockCount; i++) {\r\n            priceArr[i] = _kStockList[i].kStockPrice;\r\n        }\r\n        return priceArr;\r\n    }\r\n\r\n    // function getExchange(address _tokenAddress) public view returns (address) {\r\n    //     return tokenToExchange[_tokenAddress];\r\n    // }\r\n}",
  "sourcePath": "D:\\codestates\\section5\\project3\\beb-03-Kameleon\\contract\\contracts\\Oracle.sol",
  "compiler": {
    "name": "solc",
    "version": "0.5.6+commit.b259423e.Emscripten.clang"
  },
  "schemaVersion": "3.4.7",
  "updatedAt": "2022-05-16T06:57:56.712Z",
  "networkType": "ethereum",
  "devdoc": {
    "methods": {
      "owner()": {
        "details": "Returns the address of the current owner.\r"
      },
      "renounceOwnership()": {
        "details": "Leaves the contract without owner. It will not be possible to call\r `onlyOwner` functions anymore. Can only be called by the current owner.\r      * NOTE: Renouncing ownership will leave the contract without an owner,\r thereby removing any functionality that is only available to the owner.\r"
      },
      "transferOwnership(address)": {
        "details": "Transfers ownership of the contract to a new account (`newOwner`).\r Can only be called by the current owner.\r"
      }
    }
  },
  "userdoc": {
    "methods": {}
  }
}